{
  "_format": "hh-sol-artifact-1",
  "contractName": "Lending",
  "sourceName": "src/Lending.sol",
  "abi": [
    {
      "inputs": [
        {
          "internalType": "address",
          "name": "_token",
          "type": "address"
        }
      ],
      "stateMutability": "nonpayable",
      "type": "constructor"
    },
    {
      "inputs": [
        {
          "internalType": "address",
          "name": "owner",
          "type": "address"
        }
      ],
      "name": "OwnableInvalidOwner",
      "type": "error"
    },
    {
      "inputs": [
        {
          "internalType": "address",
          "name": "account",
          "type": "address"
        }
      ],
      "name": "OwnableUnauthorizedAccount",
      "type": "error"
    },
    {
      "inputs": [],
      "name": "ReentrancyGuardReentrantCall",
      "type": "error"
    },
    {
      "inputs": [
        {
          "internalType": "address",
          "name": "token",
          "type": "address"
        }
      ],
      "name": "SafeERC20FailedOperation",
      "type": "error"
    },
    {
      "anonymous": false,
      "inputs": [
        {
          "indexed": true,
          "internalType": "bytes32",
          "name": "loanId",
          "type": "bytes32"
        },
        {
          "indexed": true,
          "internalType": "address",
          "name": "lender",
          "type": "address"
        },
        {
          "indexed": false,
          "internalType": "uint256",
          "name": "amount",
          "type": "uint256"
        },
        {
          "indexed": false,
          "internalType": "uint256",
          "name": "interestRate",
          "type": "uint256"
        },
        {
          "indexed": false,
          "internalType": "uint256",
          "name": "expectedReturn",
          "type": "uint256"
        }
      ],
      "name": "InvestmentMade",
      "type": "event"
    },
    {
      "anonymous": false,
      "inputs": [
        {
          "indexed": true,
          "internalType": "bytes32",
          "name": "loanId",
          "type": "bytes32"
        },
        {
          "indexed": true,
          "internalType": "address",
          "name": "lender",
          "type": "address"
        },
        {
          "indexed": false,
          "internalType": "uint256",
          "name": "amount",
          "type": "uint256"
        }
      ],
      "name": "InvestmentRepaid",
      "type": "event"
    },
    {
      "anonymous": false,
      "inputs": [
        {
          "indexed": true,
          "internalType": "address",
          "name": "previousOwner",
          "type": "address"
        },
        {
          "indexed": true,
          "internalType": "address",
          "name": "newOwner",
          "type": "address"
        }
      ],
      "name": "OwnershipTransferred",
      "type": "event"
    },
    {
      "inputs": [
        {
          "internalType": "bytes32",
          "name": "loanId",
          "type": "bytes32"
        },
        {
          "internalType": "address[]",
          "name": "lenders",
          "type": "address[]"
        },
        {
          "internalType": "uint256[]",
          "name": "amounts",
          "type": "uint256[]"
        }
      ],
      "name": "batchRepayInvestment",
      "outputs": [],
      "stateMutability": "nonpayable",
      "type": "function"
    },
    {
      "inputs": [
        {
          "internalType": "address",
          "name": "lender",
          "type": "address"
        }
      ],
      "name": "getActiveInvestments",
      "outputs": [
        {
          "components": [
            {
              "internalType": "bytes32",
              "name": "loanId",
              "type": "bytes32"
            },
            {
              "internalType": "address",
              "name": "lender",
              "type": "address"
            },
            {
              "internalType": "uint256",
              "name": "amount",
              "type": "uint256"
            },
            {
              "internalType": "uint256",
              "name": "interestRate",
              "type": "uint256"
            },
            {
              "internalType": "uint256",
              "name": "expectedReturn",
              "type": "uint256"
            },
            {
              "internalType": "bool",
              "name": "repaid",
              "type": "bool"
            },
            {
              "internalType": "uint256",
              "name": "investedAt",
              "type": "uint256"
            }
          ],
          "internalType": "struct Lending.Investment[]",
          "name": "",
          "type": "tuple[]"
        }
      ],
      "stateMutability": "view",
      "type": "function"
    },
    {
      "inputs": [
        {
          "internalType": "address",
          "name": "lender",
          "type": "address"
        }
      ],
      "name": "getLenderInvestments",
      "outputs": [
        {
          "components": [
            {
              "internalType": "bytes32",
              "name": "loanId",
              "type": "bytes32"
            },
            {
              "internalType": "address",
              "name": "lender",
              "type": "address"
            },
            {
              "internalType": "uint256",
              "name": "amount",
              "type": "uint256"
            },
            {
              "internalType": "uint256",
              "name": "interestRate",
              "type": "uint256"
            },
            {
              "internalType": "uint256",
              "name": "expectedReturn",
              "type": "uint256"
            },
            {
              "internalType": "bool",
              "name": "repaid",
              "type": "bool"
            },
            {
              "internalType": "uint256",
              "name": "investedAt",
              "type": "uint256"
            }
          ],
          "internalType": "struct Lending.Investment[]",
          "name": "",
          "type": "tuple[]"
        }
      ],
      "stateMutability": "view",
      "type": "function"
    },
    {
      "inputs": [
        {
          "internalType": "address",
          "name": "lender",
          "type": "address"
        }
      ],
      "name": "getLenderTotalInvested",
      "outputs": [
        {
          "internalType": "uint256",
          "name": "",
          "type": "uint256"
        }
      ],
      "stateMutability": "view",
      "type": "function"
    },
    {
      "inputs": [
        {
          "internalType": "address",
          "name": "lender",
          "type": "address"
        }
      ],
      "name": "getLenderTotalReturns",
      "outputs": [
        {
          "internalType": "uint256",
          "name": "",
          "type": "uint256"
        }
      ],
      "stateMutability": "view",
      "type": "function"
    },
    {
      "inputs": [
        {
          "internalType": "bytes32",
          "name": "loanId",
          "type": "bytes32"
        }
      ],
      "name": "getLoanInvestments",
      "outputs": [
        {
          "components": [
            {
              "internalType": "bytes32",
              "name": "loanId",
              "type": "bytes32"
            },
            {
              "internalType": "address",
              "name": "lender",
              "type": "address"
            },
            {
              "internalType": "uint256",
              "name": "amount",
              "type": "uint256"
            },
            {
              "internalType": "uint256",
              "name": "interestRate",
              "type": "uint256"
            },
            {
              "internalType": "uint256",
              "name": "expectedReturn",
              "type": "uint256"
            },
            {
              "internalType": "bool",
              "name": "repaid",
              "type": "bool"
            },
            {
              "internalType": "uint256",
              "name": "investedAt",
              "type": "uint256"
            }
          ],
          "internalType": "struct Lending.Investment[]",
          "name": "",
          "type": "tuple[]"
        }
      ],
      "stateMutability": "view",
      "type": "function"
    },
    {
      "inputs": [
        {
          "internalType": "bytes32",
          "name": "loanId",
          "type": "bytes32"
        },
        {
          "internalType": "uint256",
          "name": "amount",
          "type": "uint256"
        },
        {
          "internalType": "uint256",
          "name": "interestRate",
          "type": "uint256"
        },
        {
          "internalType": "uint256",
          "name": "expectedReturn",
          "type": "uint256"
        }
      ],
      "name": "invest",
      "outputs": [],
      "stateMutability": "nonpayable",
      "type": "function"
    },
    {
      "inputs": [
        {
          "internalType": "address",
          "name": "",
          "type": "address"
        },
        {
          "internalType": "uint256",
          "name": "",
          "type": "uint256"
        }
      ],
      "name": "lenderInvestments",
      "outputs": [
        {
          "internalType": "bytes32",
          "name": "loanId",
          "type": "bytes32"
        },
        {
          "internalType": "address",
          "name": "lender",
          "type": "address"
        },
        {
          "internalType": "uint256",
          "name": "amount",
          "type": "uint256"
        },
        {
          "internalType": "uint256",
          "name": "interestRate",
          "type": "uint256"
        },
        {
          "internalType": "uint256",
          "name": "expectedReturn",
          "type": "uint256"
        },
        {
          "internalType": "bool",
          "name": "repaid",
          "type": "bool"
        },
        {
          "internalType": "uint256",
          "name": "investedAt",
          "type": "uint256"
        }
      ],
      "stateMutability": "view",
      "type": "function"
    },
    {
      "inputs": [
        {
          "internalType": "bytes32",
          "name": "",
          "type": "bytes32"
        },
        {
          "internalType": "uint256",
          "name": "",
          "type": "uint256"
        }
      ],
      "name": "loanInvestments",
      "outputs": [
        {
          "internalType": "bytes32",
          "name": "loanId",
          "type": "bytes32"
        },
        {
          "internalType": "address",
          "name": "lender",
          "type": "address"
        },
        {
          "internalType": "uint256",
          "name": "amount",
          "type": "uint256"
        },
        {
          "internalType": "uint256",
          "name": "interestRate",
          "type": "uint256"
        },
        {
          "internalType": "uint256",
          "name": "expectedReturn",
          "type": "uint256"
        },
        {
          "internalType": "bool",
          "name": "repaid",
          "type": "bool"
        },
        {
          "internalType": "uint256",
          "name": "investedAt",
          "type": "uint256"
        }
      ],
      "stateMutability": "view",
      "type": "function"
    },
    {
      "inputs": [
        {
          "internalType": "bytes32",
          "name": "",
          "type": "bytes32"
        }
      ],
      "name": "loanTotalInvested",
      "outputs": [
        {
          "internalType": "uint256",
          "name": "",
          "type": "uint256"
        }
      ],
      "stateMutability": "view",
      "type": "function"
    },
    {
      "inputs": [],
      "name": "owner",
      "outputs": [
        {
          "internalType": "address",
          "name": "",
          "type": "address"
        }
      ],
      "stateMutability": "view",
      "type": "function"
    },
    {
      "inputs": [],
      "name": "renounceOwnership",
      "outputs": [],
      "stateMutability": "nonpayable",
      "type": "function"
    },
    {
      "inputs": [
        {
          "internalType": "bytes32",
          "name": "loanId",
          "type": "bytes32"
        },
        {
          "internalType": "address",
          "name": "lender",
          "type": "address"
        },
        {
          "internalType": "uint256",
          "name": "amount",
          "type": "uint256"
        }
      ],
      "name": "repayInvestment",
      "outputs": [],
      "stateMutability": "nonpayable",
      "type": "function"
    },
    {
      "inputs": [],
      "name": "token",
      "outputs": [
        {
          "internalType": "contract IERC20",
          "name": "",
          "type": "address"
        }
      ],
      "stateMutability": "view",
      "type": "function"
    },
    {
      "inputs": [
        {
          "internalType": "address",
          "name": "newOwner",
          "type": "address"
        }
      ],
      "name": "transferOwnership",
      "outputs": [],
      "stateMutability": "nonpayable",
      "type": "function"
    },
    {
      "inputs": [],
      "name": "withdrawETH",
      "outputs": [],
      "stateMutability": "nonpayable",
      "type": "function"
    },
    {
      "inputs": [
        {
          "internalType": "address",
          "name": "_token",
          "type": "address"
        },
        {
          "internalType": "uint256",
          "name": "amount",
          "type": "uint256"
        }
      ],
      "name": "withdrawTokens",
      "outputs": [],
      "stateMutability": "nonpayable",
      "type": "function"
    },
    {
      "stateMutability": "payable",
      "type": "receive"
    }
  ],
  "bytecode": "0x60a060405234801561000f575f80fd5b5060405161179e38038061179e83398101604081905261002e91610138565b338061005457604051631e4fbdf760e01b81525f60048201526024015b60405180910390fd5b61005d816100e9565b5060017f9b779b17422d0df92223018b32b4d1fa46e071723d6817e2486d003becc55f00556001600160a01b0381166100d85760405162461bcd60e51b815260206004820152601560248201527f496e76616c696420746f6b656e20616464726573730000000000000000000000604482015260640161004b565b6001600160a01b0316608052610165565b5f80546001600160a01b038381166001600160a01b0319831681178455604051919092169283917f8be0079c531659141344cd1fd0a4f28419497f9722a3daafe3b4186f6b6457e09190a35050565b5f60208284031215610148575f80fd5b81516001600160a01b038116811461015e575f80fd5b9392505050565b60805161161361018b5f395f8181610352015281816108f00152610cca01526116135ff3fe6080604052600436106100fd575f3560e01c80639fae886b11610092578063e086e5ec11610062578063e086e5ec146102ef578063f2fde38b14610303578063f8bd333d14610322578063fc0c546a14610341578063fe2c378314610374575f80fd5b80639fae886b14610273578063a5352e1214610292578063ae726807146102b1578063b0645eab146102d0575f80fd5b8063715018a6116100cd578063715018a6146101e45780637b53be72146101f85780638da5cb5b146102245780638dd87cee14610254575f80fd5b8063055e56521461010857806306b091f91461016b5780630f93561c1461018c57806366b380ec146101c5575f80fd5b3661010457005b5f80fd5b348015610113575f80fd5b5061012761012236600461130d565b610393565b604080519788526001600160a01b0390961660208801529486019390935260608501919091526080840152151560a083015260c082015260e0015b60405180910390f35b348015610176575f80fd5b5061018a610185366004611348565b6103f9565b005b348015610197575f80fd5b506101b76101a6366004611370565b60036020525f908152604090205481565b604051908152602001610162565b3480156101d0575f80fd5b506101b76101df366004611387565b61047d565b3480156101ef575f80fd5b5061018a61050d565b348015610203575f80fd5b50610217610212366004611387565b610520565b60405161016291906113a7565b34801561022f575f80fd5b505f546001600160a01b03165b6040516001600160a01b039091168152602001610162565b34801561025f575f80fd5b5061018a61026e366004611433565b6105e1565b34801561027e575f80fd5b5061021761028d366004611370565b61077e565b34801561029d575f80fd5b5061018a6102ac366004611465565b610827565b3480156102bc575f80fd5b5061018a6102cb3660046114dc565b610b5c565b3480156102db575f80fd5b506102176102ea366004611387565b610d0f565b3480156102fa575f80fd5b5061018a610ef0565b34801561030e575f80fd5b5061018a61031d366004611387565b610f32565b34801561032d575f80fd5b5061012761033c366004611348565b610f6c565b34801561034c575f80fd5b5061023c7f000000000000000000000000000000000000000000000000000000000000000081565b34801561037f575f80fd5b506101b761038e366004611387565b610f85565b6001602052815f5260405f2081815481106103ac575f80fd5b5f91825260209091206007909102018054600182015460028301546003840154600485015460058601546006909601549497506001600160a01b0390931695509093909260ff9091169087565b610401610fdf565b6001600160a01b0382166104545760405162461bcd60e51b8152602060048201526015602482015274496e76616c696420746f6b656e206164647265737360581b60448201526064015b60405180910390fd5b6104796104685f546001600160a01b031690565b6001600160a01b038416908361100b565b5050565b6001600160a01b0381165f90815260026020526040812081805b8254811015610505578281815481106104b2576104b2611550565b5f91825260209091206005600790920201015460ff16156104fd578281815481106104df576104df611550565b905f5260205f20906007020160040154826104fa9190611578565b91505b600101610497565b509392505050565b610515610fdf565b61051e5f611040565b565b6001600160a01b0381165f908152600260209081526040808320805482518185028101850190935280835260609492939192909184015b828210156105d6575f8481526020908190206040805160e08101825260078602909201805483526001808201546001600160a01b0316848601526002820154928401929092526003810154606084015260048101546080840152600581015460ff16151560a08401526006015460c08301529083529092019101610557565b505050509050919050565b6105e9610fdf565b6105f161108f565b5f838152600160205260408120905b815481101561076157836001600160a01b031682828154811061062557610625611550565b5f9182526020909120600160079092020101546001600160a01b0316148015610673575081818154811061065b5761065b611550565b5f91825260209091206005600790920201015460ff16155b1561075957600182828154811061068c5761068c611550565b5f9182526020822060056007929092020101805492151560ff19909316929092179091556040805160018082528183019092529081602001602082028036833701905050905084815f815181106106e5576106e5611550565b60200260200101906001600160a01b031690816001600160a01b03168152505061070f81856110aa565b846001600160a01b0316867f2b9b9998b51f4c4344c4936a8acc8269af65b9b1d113975592a1f72250fdecba8660405161074b91815260200190565b60405180910390a350610761565b600101610600565b505061077960015f805160206115be83398151915255565b505050565b5f8181526001602090815260408083208054825181850281018501909352808352606094929391929091840182156105d6575f8481526020908190206040805160e08101825260078602909201805483526001808201546001600160a01b0316848601526002820154928401929092526003810154606084015260048101546080840152600581015460ff16151560a08401526006015460c08301529083529092019101610557565b61082f61108f565b5f831161088f5760405162461bcd60e51b815260206004820152602860248201527f496e766573746d656e7420616d6f756e74206d75737420626520677265617465604482015267072207468616e20360c41b606482015260840161044b565b5f8211801561089f575060648211155b6108e35760405162461bcd60e51b8152602060048201526015602482015274496e76616c696420696e746572657374207261746560581b604482015260640161044b565b6109186001600160a01b037f0000000000000000000000000000000000000000000000000000000000000000163330866110be565b5f6040518060e00160405280868152602001336001600160a01b031681526020018581526020018481526020018381526020015f1515815260200142815250905060015f8681526020019081526020015f2081908060018154018082558091505060019003905f5260205f2090600702015f909190919091505f820151815f01556020820151816001015f6101000a8154816001600160a01b0302191690836001600160a01b0316021790555060408201518160020155606082015181600301556080820151816004015560a0820151816005015f6101000a81548160ff02191690831515021790555060c08201518160060155505060025f336001600160a01b03166001600160a01b031681526020019081526020015f2081908060018154018082558091505060019003905f5260205f2090600702015f909190919091505f820151815f01556020820151816001015f6101000a8154816001600160a01b0302191690836001600160a01b0316021790555060408201518160020155606082015181600301556080820151816004015560a0820151816005015f6101000a81548160ff02191690831515021790555060c0820151816006015550508360035f8781526020019081526020015f205f828254610af59190611578565b90915550506040805185815260208101859052908101839052339086907fbfc8417e8c17fd6f3222557453e547ffb9ebaa2a6288d98af9c1015ba92684179060600160405180910390a350610b5660015f805160206115be83398151915255565b50505050565b610b64610fdf565b610b6c61108f565b828114610bad5760405162461bcd60e51b815260206004820152600f60248201526e098cadccee8d040dad2e6dac2e8c6d608b1b604482015260640161044b565b5f5b83811015610c7157610be786868684818110610bcd57610bcd611550565b9050602002016020810190610be29190611387565b6110f4565b848482818110610bf957610bf9611550565b9050602002016020810190610c0e9190611387565b6001600160a01b0316867f2b9b9998b51f4c4344c4936a8acc8269af65b9b1d113975592a1f72250fdecba858585818110610c4b57610c4b611550565b90506020020135604051610c6191815260200190565b60405180910390a3600101610baf565b505f805b82811015610cab57838382818110610c8f57610c8f611550565b9050602002013582610ca19190611578565b9150600101610c75565b50610cf1610cc05f546001600160a01b031690565b6001600160a01b037f000000000000000000000000000000000000000000000000000000000000000016908361100b565b50610d0860015f805160206115be83398151915255565b5050505050565b6001600160a01b0381165f908152600260205260408120606091805b8254811015610d7657828181548110610d4657610d46611550565b5f91825260209091206005600790920201015460ff16610d6e5781610d6a816115a5565b9250505b600101610d2b565b505f8167ffffffffffffffff811115610d9157610d91611591565b604051908082528060200260200182016040528015610df657816020015b6040805160e0810182525f8082526020808301829052928201819052606082018190526080820181905260a0820181905260c082015282525f19909201910181610daf5790505b5090505f805b8454811015610ee557848181548110610e1757610e17611550565b5f91825260209091206005600790920201015460ff16610edd57848181548110610e4357610e43611550565b5f9182526020918290206040805160e08101825260079093029091018054835260018101546001600160a01b0316938301939093526002830154908201526003820154606082015260048201546080820152600582015460ff16151560a082015260069091015460c08201528351849084908110610ec357610ec3611550565b60200260200101819052508180610ed9906115a5565b9250505b600101610dfc565b509095945050505050565b610ef8610fdf565b5f80546040516001600160a01b03909116914780156108fc02929091818181858888f19350505050158015610f2f573d5f803e3d5ffd5b50565b610f3a610fdf565b6001600160a01b038116610f6357604051631e4fbdf760e01b81525f600482015260240161044b565b610f2f81611040565b6002602052815f5260405f2081815481106103ac575f80fd5b6001600160a01b0381165f90815260026020526040812081805b825481101561050557828181548110610fba57610fba611550565b905f5260205f2090600702016002015482610fd59190611578565b9150600101610f9f565b5f546001600160a01b0316331461051e5760405163118cdaa760e01b815233600482015260240161044b565b611018838383600161120f565b61077957604051635274afe760e01b81526001600160a01b038416600482015260240161044b565b5f80546001600160a01b038381166001600160a01b0319831681178455604051919092169283917f8be0079c531659141344cd1fd0a4f28419497f9722a3daafe3b4186f6b6457e09190a35050565b611097611271565b60025f805160206115be83398151915255565b610479610cc05f546001600160a01b031690565b6110cc8484848460016112a0565b610b5657604051635274afe760e01b81526001600160a01b038516600482015260240161044b565b5f828152600160205260408120905b815481101561118757826001600160a01b031682828154811061112857611128611550565b5f9182526020909120600160079092020101546001600160a01b03160361117f57600182828154811061115d5761115d611550565b5f9182526020909120600790910201600501805460ff19169115159190911790555b600101611103565b506001600160a01b0382165f908152600260205260408120905b8154811015610d0857848282815481106111bd576111bd611550565b905f5260205f2090600702015f0154036112075760018282815481106111e5576111e5611550565b5f9182526020909120600790910201600501805460ff19169115159190911790555b6001016111a1565b60405163a9059cbb60e01b5f8181526001600160a01b038616600452602485905291602083604481808b5af1925060015f51148316611265578383151615611259573d5f823e3d81fd5b5f873b113d1516831692505b60405250949350505050565b5f805160206115be8339815191525460020361051e57604051633ee5aeb560e01b815260040160405180910390fd5b6040516323b872dd60e01b5f8181526001600160a01b038781166004528616602452604485905291602083606481808c5af1925060015f511483166112fc5783831516156112f0573d5f823e3d81fd5b5f883b113d1516831692505b604052505f60605295945050505050565b5f806040838503121561131e575f80fd5b50508035926020909101359150565b80356001600160a01b0381168114611343575f80fd5b919050565b5f8060408385031215611359575f80fd5b6113628361132d565b946020939093013593505050565b5f60208284031215611380575f80fd5b5035919050565b5f60208284031215611397575f80fd5b6113a08261132d565b9392505050565b602080825282518282018190525f919060409081850190868401855b8281101561142657815180518552868101516001600160a01b0316878601528581015186860152606080820151908601526080808201519086015260a08082015115159086015260c0908101519085015260e090930192908501906001016113c3565b5091979650505050505050565b5f805f60608486031215611445575f80fd5b833592506114556020850161132d565b9150604084013590509250925092565b5f805f8060808587031215611478575f80fd5b5050823594602084013594506040840135936060013592509050565b5f8083601f8401126114a4575f80fd5b50813567ffffffffffffffff8111156114bb575f80fd5b6020830191508360208260051b85010111156114d5575f80fd5b9250929050565b5f805f805f606086880312156114f0575f80fd5b85359450602086013567ffffffffffffffff8082111561150e575f80fd5b61151a89838a01611494565b90965094506040880135915080821115611532575f80fd5b5061153f88828901611494565b969995985093965092949392505050565b634e487b7160e01b5f52603260045260245ffd5b634e487b7160e01b5f52601160045260245ffd5b8082018082111561158b5761158b611564565b92915050565b634e487b7160e01b5f52604160045260245ffd5b5f600182016115b6576115b6611564565b506001019056fe9b779b17422d0df92223018b32b4d1fa46e071723d6817e2486d003becc55f00a2646970667358221220fedf85916d8ba7911d6349c39e60b6354f9021dfce979ba90f10aec43a32f85f64736f6c63430008190033",
  "linkReferences": {},
  "deployedLinkReferences": {}
}