{"abi":[{"type":"constructor","inputs":[],"stateMutability":"nonpayable"},{"type":"function","name":"approve","inputs":[{"name":"to","type":"address","internalType":"address"},{"name":"tokenId","type":"uint256","internalType":"uint256"}],"outputs":[],"stateMutability":"nonpayable"},{"type":"function","name":"badges","inputs":[{"name":"","type":"uint256","internalType":"uint256"}],"outputs":[{"name":"recipient","type":"address","internalType":"address"},{"name":"moduleId","type":"string","internalType":"string"},{"name":"score","type":"uint256","internalType":"uint256"},{"name":"tier","type":"uint8","internalType":"enum LiteracyBadge.BadgeTier"},{"name":"mintedAt","type":"uint256","internalType":"uint256"}],"stateMutability":"view"},{"type":"function","name":"balanceOf","inputs":[{"name":"owner","type":"address","internalType":"address"}],"outputs":[{"name":"","type":"uint256","internalType":"uint256"}],"stateMutability":"view"},{"type":"function","name":"batchMintBadges","inputs":[{"name":"recipients","type":"address[]","internalType":"address[]"},{"name":"moduleIds","type":"string[]","internalType":"string[]"},{"name":"scores","type":"uint256[]","internalType":"uint256[]"}],"outputs":[],"stateMutability":"nonpayable"},{"type":"function","name":"getApproved","inputs":[{"name":"tokenId","type":"uint256","internalType":"uint256"}],"outputs":[{"name":"","type":"address","internalType":"address"}],"stateMutability":"view"},{"type":"function","name":"getBadgeDetails","inputs":[{"name":"tokenId","type":"uint256","internalType":"uint256"}],"outputs":[{"name":"","type":"tuple","internalType":"struct LiteracyBadge.Badge","components":[{"name":"recipient","type":"address","internalType":"address"},{"name":"moduleId","type":"string","internalType":"string"},{"name":"score","type":"uint256","internalType":"uint256"},{"name":"tier","type":"uint8","internalType":"enum LiteracyBadge.BadgeTier"},{"name":"mintedAt","type":"uint256","internalType":"uint256"}]}],"stateMutability":"view"},{"type":"function","name":"getUserBadgeCount","inputs":[{"name":"user","type":"address","internalType":"address"}],"outputs":[{"name":"","type":"uint256","internalType":"uint256"}],"stateMutability":"view"},{"type":"function","name":"getUserBadges","inputs":[{"name":"user","type":"address","internalType":"address"}],"outputs":[{"name":"","type":"uint256[]","internalType":"uint256[]"}],"stateMutability":"view"},{"type":"function","name":"getUserTiers","inputs":[{"name":"user","type":"address","internalType":"address"}],"outputs":[{"name":"","type":"uint256[]","internalType":"uint256[]"}],"stateMutability":"view"},{"type":"function","name":"hasCompleted","inputs":[{"name":"user","type":"address","internalType":"address"},{"name":"moduleId","type":"string","internalType":"string"}],"outputs":[{"name":"","type":"bool","internalType":"bool"}],"stateMutability":"view"},{"type":"function","name":"hasCompletedModule","inputs":[{"name":"","type":"address","internalType":"address"},{"name":"","type":"string","internalType":"string"}],"outputs":[{"name":"","type":"bool","internalType":"bool"}],"stateMutability":"view"},{"type":"function","name":"isApprovedForAll","inputs":[{"name":"owner","type":"address","internalType":"address"},{"name":"operator","type":"address","internalType":"address"}],"outputs":[{"name":"","type":"bool","internalType":"bool"}],"stateMutability":"view"},{"type":"function","name":"mintBadge","inputs":[{"name":"recipient","type":"address","internalType":"address"},{"name":"moduleId","type":"string","internalType":"string"},{"name":"score","type":"uint256","internalType":"uint256"}],"outputs":[{"name":"","type":"uint256","internalType":"uint256"}],"stateMutability":"nonpayable"},{"type":"function","name":"name","inputs":[],"outputs":[{"name":"","type":"string","internalType":"string"}],"stateMutability":"view"},{"type":"function","name":"owner","inputs":[],"outputs":[{"name":"","type":"address","internalType":"address"}],"stateMutability":"view"},{"type":"function","name":"ownerOf","inputs":[{"name":"tokenId","type":"uint256","internalType":"uint256"}],"outputs":[{"name":"","type":"address","internalType":"address"}],"stateMutability":"view"},{"type":"function","name":"renounceOwnership","inputs":[],"outputs":[],"stateMutability":"nonpayable"},{"type":"function","name":"safeTransferFrom","inputs":[{"name":"from","type":"address","internalType":"address"},{"name":"to","type":"address","internalType":"address"},{"name":"tokenId","type":"uint256","internalType":"uint256"}],"outputs":[],"stateMutability":"nonpayable"},{"type":"function","name":"safeTransferFrom","inputs":[{"name":"from","type":"address","internalType":"address"},{"name":"to","type":"address","internalType":"address"},{"name":"tokenId","type":"uint256","internalType":"uint256"},{"name":"data","type":"bytes","internalType":"bytes"}],"outputs":[],"stateMutability":"nonpayable"},{"type":"function","name":"setApprovalForAll","inputs":[{"name":"operator","type":"address","internalType":"address"},{"name":"approved","type":"bool","internalType":"bool"}],"outputs":[],"stateMutability":"nonpayable"},{"type":"function","name":"supportsInterface","inputs":[{"name":"interfaceId","type":"bytes4","internalType":"bytes4"}],"outputs":[{"name":"","type":"bool","internalType":"bool"}],"stateMutability":"view"},{"type":"function","name":"symbol","inputs":[],"outputs":[{"name":"","type":"string","internalType":"string"}],"stateMutability":"view"},{"type":"function","name":"tokenURI","inputs":[{"name":"tokenId","type":"uint256","internalType":"uint256"}],"outputs":[{"name":"","type":"string","internalType":"string"}],"stateMutability":"view"},{"type":"function","name":"transferFrom","inputs":[{"name":"from","type":"address","internalType":"address"},{"name":"to","type":"address","internalType":"address"},{"name":"tokenId","type":"uint256","internalType":"uint256"}],"outputs":[],"stateMutability":"nonpayable"},{"type":"function","name":"transferOwnership","inputs":[{"name":"newOwner","type":"address","internalType":"address"}],"outputs":[],"stateMutability":"nonpayable"},{"type":"function","name":"upgradeBadgeTier","inputs":[{"name":"tokenId","type":"uint256","internalType":"uint256"},{"name":"newScore","type":"uint256","internalType":"uint256"}],"outputs":[],"stateMutability":"nonpayable"},{"type":"function","name":"userBadges","inputs":[{"name":"","type":"address","internalType":"address"},{"name":"","type":"uint256","internalType":"uint256"}],"outputs":[{"name":"","type":"uint256","internalType":"uint256"}],"stateMutability":"view"},{"type":"event","name":"Approval","inputs":[{"name":"owner","type":"address","indexed":true,"internalType":"address"},{"name":"approved","type":"address","indexed":true,"internalType":"address"},{"name":"tokenId","type":"uint256","indexed":true,"internalType":"uint256"}],"anonymous":false},{"type":"event","name":"ApprovalForAll","inputs":[{"name":"owner","type":"address","indexed":true,"internalType":"address"},{"name":"operator","type":"address","indexed":true,"internalType":"address"},{"name":"approved","type":"bool","indexed":false,"internalType":"bool"}],"anonymous":false},{"type":"event","name":"BadgeMinted","inputs":[{"name":"tokenId","type":"uint256","indexed":true,"internalType":"uint256"},{"name":"recipient","type":"address","indexed":true,"internalType":"address"},{"name":"moduleId","type":"string","indexed":false,"internalType":"string"},{"name":"tier","type":"uint8","indexed":false,"internalType":"enum LiteracyBadge.BadgeTier"},{"name":"score","type":"uint256","indexed":false,"internalType":"uint256"}],"anonymous":false},{"type":"event","name":"BadgeTierUpgraded","inputs":[{"name":"tokenId","type":"uint256","indexed":true,"internalType":"uint256"},{"name":"oldTier","type":"uint8","indexed":false,"internalType":"enum LiteracyBadge.BadgeTier"},{"name":"newTier","type":"uint8","indexed":false,"internalType":"enum LiteracyBadge.BadgeTier"}],"anonymous":false},{"type":"event","name":"BatchMetadataUpdate","inputs":[{"name":"_fromTokenId","type":"uint256","indexed":false,"internalType":"uint256"},{"name":"_toTokenId","type":"uint256","indexed":false,"internalType":"uint256"}],"anonymous":false},{"type":"event","name":"MetadataUpdate","inputs":[{"name":"_tokenId","type":"uint256","indexed":false,"internalType":"uint256"}],"anonymous":false},{"type":"event","name":"OwnershipTransferred","inputs":[{"name":"previousOwner","type":"address","indexed":true,"internalType":"address"},{"name":"newOwner","type":"address","indexed":true,"internalType":"address"}],"anonymous":false},{"type":"event","name":"Transfer","inputs":[{"name":"from","type":"address","indexed":true,"internalType":"address"},{"name":"to","type":"address","indexed":true,"internalType":"address"},{"name":"tokenId","type":"uint256","indexed":true,"internalType":"uint256"}],"anonymous":false},{"type":"error","name":"ERC721IncorrectOwner","inputs":[{"name":"sender","type":"address","internalType":"address"},{"name":"tokenId","type":"uint256","internalType":"uint256"},{"name":"owner","type":"address","internalType":"address"}]},{"type":"error","name":"ERC721InsufficientApproval","inputs":[{"name":"operator","type":"address","internalType":"address"},{"name":"tokenId","type":"uint256","internalType":"uint256"}]},{"type":"error","name":"ERC721InvalidApprover","inputs":[{"name":"approver","type":"address","internalType":"address"}]},{"type":"error","name":"ERC721InvalidOperator","inputs":[{"name":"operator","type":"address","internalType":"address"}]},{"type":"error","name":"ERC721InvalidOwner","inputs":[{"name":"owner","type":"address","internalType":"address"}]},{"type":"error","name":"ERC721InvalidReceiver","inputs":[{"name":"receiver","type":"address","internalType":"address"}]},{"type":"error","name":"ERC721InvalidSender","inputs":[{"name":"sender","type":"address","internalType":"address"}]},{"type":"error","name":"ERC721NonexistentToken","inputs":[{"name":"tokenId","type":"uint256","internalType":"uint256"}]},{"type":"error","name":"OwnableInvalidOwner","inputs":[{"name":"owner","type":"address","internalType":"address"}]},{"type":"error","name":"OwnableUnauthorizedAccount","inputs":[{"name":"account","type":"address","internalType":"address"}]},{"type":"error","name":"ReentrancyGuardReentrantCall","inputs":[]}],"bytecode":{"object":"0x608034610379576001600160401b039060409080820183811182821017610365578252601b815260207f456d706f776572436861696e204c69746572616379204261646765000000000081830152825193838501858110828211176103655784526004918286526322a1a62160e11b8187015283519082821161027d575f54916001958684811c9416801561035b575b83851014610348578190601f948581116102fa575b50839085831160011461029b575f92610290575b50505f19600383901b1c191690861b175f555b865192831161027d5784548581811c91168015610273575b828210146102605782811161021d575b50809183116001146101ba575081929394955f926101af575b50505f19600383901b1c191690831b1782555b3315610199575060078054336001600160a01b0319821681179092559251926001600160a01b03167f8be0079c531659141344cd1fd0a4f28419497f9722a3daafe3b4186f6b6457e05f80a37f9b779b17422d0df92223018b32b4d1fa46e071723d6817e2486d003becc55f00556121ab908161037e8239f35b6024905f845191631e4fbdf760e01b8352820152fd5b015190505f8061010c565b90601f19831696855f52825f20925f905b89821061020657505083869798969596106101ee575b505050811b01825561011f565b01515f1960f88460031b161c191690555f80806101e1565b8088859682949686015181550195019301906101cb565b855f52815f208380860160051c820192848710610257575b0160051c019086905b82811061024c5750506100f3565b5f815501869061023e565b92508192610235565b602285634e487b7160e01b5f525260245ffd5b90607f16906100e3565b604184634e487b7160e01b5f525260245ffd5b015190505f806100b8565b90889350601f198316915f8052855f20925f5b878282106102e457505084116102cc575b505050811b015f556100cb565b01515f1960f88460031b161c191690555f80806102bf565b8385015186558c979095019493840193016102ae565b9091505f8052835f208580850160051c82019286861061033f575b918a91869594930160051c01915b8281106103315750506100a4565b5f81558594508a9101610323565b92508192610315565b602286634e487b7160e01b5f525260245ffd5b93607f169361008f565b634e487b7160e01b5f52604160045260245ffd5b5f80fdfe608060409080825260049081361015610016575f80fd5b5f3560e01c90816301ffc9a714610f985750806306fdde0314610eeb578063081812fc14610eb2578063095ea7b314610dd657806323b872dd14610dbf5780632950c4bd14610cd057806337c245fe14610c505780633d18dc6f1461090f57806342842e0e14610c2257806342ed9fac14610a975780635248b0381461095c57806356b2c4961461090f5780636352211e146108df57806369679575146108a857806370a0823114610853578063715018a6146107f857806382023931146106f4578063824a5a2f1461055e5780638da5cb5b1461053657806395d89b411461045357806398e36d8b146103d5578063a22cb4651461031d578063b88d4fde146102b1578063c87b56dd1461027a578063df91cc2314610223578063e985e9c5146101d55763f2fde38b14610149575f80fd5b346101d15760203660031901126101d157610162611040565b9061016b6115d6565b6001600160a01b039182169283156101bb575050600754826001600160601b0360a01b821617600755167f8be0079c531659141344cd1fd0a4f28419497f9722a3daafe3b4186f6b6457e05f80a3005b905f6024925191631e4fbdf760e01b8352820152fd5b5f80fd5b82346101d157806003193601126101d1576020906101f1611040565b6101f9611056565b9060018060a01b038091165f5260058452825f2091165f52825260ff815f20541690519015158152f35b82346101d157806003193601126101d15761023c611040565b6001600160a01b03165f908152600a60205281902080546024359291908310156101d15760209261026c9161133b565b91905490519160031b1c8152f35b5090346101d15760203660031901126101d15761029a6102ad9235612009565b905191829160208352602083019061101c565b0390f35b50346101d15760803660031901126101d1576102cb611040565b6102d3611056565b604435906064356001600160401b0381116101d157366023820112156101d15761031b948160246103099336930135910161119e565b92610315838383611364565b33611ebf565b005b5090346101d157806003193601126101d157610337611040565b90602435918215158093036101d15733156103bf576001600160a01b03169283156103aa5750335f526005602052805f20835f52602052805f2060ff1981541660ff8416179055519081527f17307eab39ab6107e8899845ad3d59bd9653f200f220920489ca2b5937696c3160203392a3005b836024925191630b61174360e31b8352820152fd5b815163a9fbf51f60e01b81525f81860152602490fd5b50346101d15760203660031901126101d15780355f526009602052815f209160018060a01b038354169161044a61040e60018601611299565b9460028101549260ff6003830154169101549261043c8551978897885260a0602089015260a088019061101c565b9486015260608501906110a1565b60808301520390f35b82346101d1575f3660031901126101d1578051905f90826001926001549361047a85611261565b90818452602095866001821691825f146105145750506001146104b9575b50506102ad92916104aa910385611162565b5192828493845283019061101c565b9085925060015f527fb10e2d527612073b26eecdfd717e6a320cf44b4afac2b0732d9fcbe2b7fa0cf6915f925b8284106104fc57505050820101816104aa610498565b8054848a0186015288955087949093019281016104e6565b60ff19168682015292151560051b850190920192508391506104aa9050610498565b82346101d1575f3660031901126101d15760075490516001600160a01b039091168152602090f35b5090346101d15760603660031901126101d157610579611040565b6024356001600160401b0381116101d15761059790369085016111d4565b604435916105a36115d6565b6105ab611602565b6001600160a01b03811680156106bd576064841161068a575f52600b60205260ff845f20602086518092865180848901845e820190815203019020541661064757906105f79291611666565b6008545f19810191908211610634576020925060017f9b779b17422d0df92223018b32b4d1fa46e071723d6817e2486d003becc55f005551908152f35b601183634e487b7160e01b5f525260245ffd5b835162461bcd60e51b8152602081870152601860248201527f4d6f64756c6520616c726561647920636f6d706c6574656400000000000000006044820152606490fd5b845162461bcd60e51b8152602081880152600d60248201526c496e76616c69642073636f726560981b6044820152606490fd5b845162461bcd60e51b81526020818801526011602482015270125b9d985b1a59081c9958da5c1a595b9d607a1b6044820152606490fd5b50346101d157602091826003193601126101d1576001600160a01b03610718611040565b165f52600a8352805f209181518084868296549384815201905f52865f20925f5b888282106107e25750505061075092500384611162565b82519361075c85611571565b9461076984519687611162565b808652610778601f1991611571565b0136828701375f5b84518110156107d5576107938186611588565b515f5260098252600360ff81865f20015416908110156107c257906001916107bb8289611588565b5201610780565b602184634e487b7160e01b5f525260245ffd5b8351806102ad88826110c2565b8554845260019586019589955093019201610739565b346101d1575f3660031901126101d1576108106115d6565b600780546001600160a01b031981169091555f906001600160a01b03167f8be0079c531659141344cd1fd0a4f28419497f9722a3daafe3b4186f6b6457e08280a3005b5090346101d15760203660031901126101d1576001600160a01b03610876611040565b16801561089257602092505f5260038252805f20549051908152f35b81516322718ad960e21b81525f81850152602490fd5b82346101d15760203660031901126101d1576020906001600160a01b036108cd611040565b165f52600a8252805f20549051908152f35b5090346101d15760203660031901126101d1576108fe6020923561159c565b90516001600160a01b039091168152f35b82346101d15760209060ff8280610925366111f2565b6001600160a01b039091165f908152600b83528590208551825190948593829101845e820190815203019020541690519015158152f35b5090346101d157806003193601126101d1578135906024359261097d6115d6565b6109996001600160a01b036109918561159c565b1615156114fa565b6109a284611aef565b93835f526009602052825f206003810160ff815416936003851015610a84576003881015610a845784881115610a415750610a22610a3e9388610a1d60018296610a117f991f1f8a7286d197f99d01279a6ed773ef5539caabd7931b9869a3bd2b16f8259c9d610a2898611559565b84600282015501611299565b611b0d565b87611d60565b610a34845180946110a1565b60208301906110a1565ba2005b606490602087519162461bcd60e51b8352820152601760248201527f4e65772074696572206d757374206265206869676865720000000000000000006044820152fd5b602190634e487b7160e01b5f525260245ffd5b50346101d15760603660031901126101d1576001600160401b0381358181116101d157610ac79036908401611231565b9190926024906024358381116101d157610ae49036908301611231565b9290916044358581116101d157610afe9036908301611231565b969098610b096115d6565b610b11611602565b85821480610c19575b15610bdf57505f5b818110610b4f5760017f9b779b17422d0df92223018b32b4d1fa46e071723d6817e2486d003becc55f0055005b610b5a81838b611549565b35906001600160a01b03821682036101d15786811015610bcd578060051b860135601e19873603018112156101d15786018035908982116101d1576020019080360382136101d157600193610bc1610bc7938f868f610bb892611549565b3593369161119e565b90611666565b01610b22565b84603285634e487b7160e01b5f52525ffd5b5162461bcd60e51b81526020818401526015602482015274082e4e4c2f240d8cadccee8d040dad2e6dac2e8c6d605b1b6044820152606490fd5b50878214610b1a565b82346101d15761031b90610c353661106c565b91925192610c428461112c565b5f8452610315838383611364565b82346101d1576020806003193601126101d1576001600160a01b03610c73611040565b165f52600a602052815f209180519182602085549182815201945f5260205f20915f905b828210610cb9576102ad8686610caf828b0383611162565b51918291826110c2565b835487529586019560019384019390910190610c97565b5090346101d157602091826003193601126101d1578035925f60808451610cf6816110fd565b8281526060848201819052868201849052810183905201526001600160a01b0393610d24856109918361159c565b5f5260098152610db5835f20610da3855195610d3f876110fd565b87835416875260a0610d5360018501611299565b868901908152600285015497838a0198895260ff60038701541695610d7c60608c01978861153d565b01549660808a0197885283519a8b9a828c525116908a0152519188015260c087019061101c565b935160608601525160808501906110a1565b5160a08301520390f35b346101d15761031b610dd03661106c565b91611364565b5090346101d157806003193601126101d157610df0611040565b91602435610dfd8161159c565b33151580610e9f575b80610e78575b610e62576001600160a01b039485169482918691167f8c5be1e5ebec7d5bd14f71427d1e84f3dd0314c0f7b2291e5b200ac8c7c3b9255f80a45f526020525f20906001600160601b0360a01b8254161790555f80f35b835163a9fbf51f60e01b81523381850152602490fd5b5060018060a01b0381165f526005602052835f20335f5260205260ff845f20541615610e0c565b506001600160a01b038116331415610e06565b5090346101d15760203660031901126101d1578160209235610ed38161159c565b505f52825260018060a01b03815f2054169051908152f35b82346101d1575f3660031901126101d1578051905f90825f5492610f0e84611261565b808352602094600190866001821691825f14610514575050600114610f3f5750506102ad92916104aa910385611162565b5f80805286935091907f290decd9548b62a8d60345a988386fc84ba6bc95484008f6362f93160ef3e5635b828410610f8057505050820101816104aa610498565b8054848a018601528895508794909301928101610f6a565b82346101d15760203660031901126101d157359063ffffffff60e01b82168092036101d157602091632483248360e11b8114908115610fd9575b5015158152f35b6380ac58cd60e01b81149150811561100b575b8115610ffa575b5083610fd2565b6301ffc9a760e01b14905083610ff3565b635b5e139f60e01b81149150610fec565b805180835260209291819084018484015e5f828201840152601f01601f1916010190565b600435906001600160a01b03821682036101d157565b602435906001600160a01b03821682036101d157565b60609060031901126101d1576001600160a01b039060043582811681036101d1579160243590811681036101d1579060443590565b9060038210156110ae5752565b634e487b7160e01b5f52602160045260245ffd5b60209060206040818301928281528551809452019301915f5b8281106110e9575050505090565b8351855293810193928101926001016110db565b60a081019081106001600160401b0382111761111857604052565b634e487b7160e01b5f52604160045260245ffd5b602081019081106001600160401b0382111761111857604052565b604081019081106001600160401b0382111761111857604052565b90601f801991011681019081106001600160401b0382111761111857604052565b6001600160401b03811161111857601f01601f191660200190565b9291926111aa82611183565b916111b86040519384611162565b8294818452818301116101d1578281602093845f960137010152565b9080601f830112156101d1578160206111ef9335910161119e565b90565b9060406003198301126101d1576004356001600160a01b03811681036101d15791602435906001600160401b0382116101d1576111ef916004016111d4565b9181601f840112156101d1578235916001600160401b0383116101d1576020808501948460051b0101116101d157565b90600182811c9216801561128f575b602083101461127b57565b634e487b7160e01b5f52602260045260245ffd5b91607f1691611270565b9060405191825f82546112ab81611261565b908184526020946001916001811690815f1461131957506001146112db575b5050506112d992500383611162565b565b5f90815285812095935091905b8183106113015750506112d993508201015f80806112ca565b855488840185015294850194879450918301916112e8565b925050506112d994925060ff191682840152151560051b8201015f80806112ca565b8054821015611350575f5260205f2001905f90565b634e487b7160e01b5f52603260045260245ffd5b6001600160a01b0391821692909183156114e257815f52602092600284528260409583875f2054169533151580611450575b506002908761141f575b825f5260038152885f2060018154019055835f5252865f20816001600160601b0360a01b825416179055857fddf252ad1be2c89b69c2b068fc378daa952ba7f163c4a11628f55a4df523b3ef5f80a416928383036113fe5750505050565b6064945051926364283d7b60e01b8452600484015260248301526044820152fd5b5f84815260046020526040812080546001600160a01b03191690558881526003825289902080545f190190556113a0565b91925090806114a1575b15611468579084915f611396565b868587611485576024915190637e27328960e01b82526004820152fd5b604491519063177e802f60e01b82523360048301526024820152fd5b5033861480156114c6575b8061145a5750845f52600481523384885f2054161461145a565b50855f5260058152865f20335f52815260ff875f2054166114ac565b604051633250574960e11b81525f6004820152602490fd5b1561150157565b60405162461bcd60e51b8152602060048201526014602482015273151bdad95b88191bd95cc81b9bdd08195e1a5cdd60621b6044820152606490fd5b60038210156110ae5752565b91908110156113505760051b0190565b9060038110156110ae5760ff80198354169116179055565b6001600160401b0381116111185760051b60200190565b80518210156113505760209160051b010190565b5f818152600260205260409020546001600160a01b03169081156115be575090565b60249060405190637e27328960e01b82526004820152fd5b6007546001600160a01b031633036115ea57565b60405163118cdaa760e01b8152336004820152602490fd5b7f9b779b17422d0df92223018b32b4d1fa46e071723d6817e2486d003becc55f0060028154146116325760029055565b604051633ee5aeb560e01b8152600490fd5b5f1981146116525760010190565b634e487b7160e01b5f52601160045260245ffd5b9161167081611aef565b906008549261167e84611644565b6008556040519461168e8661112c565b5f86526001600160a01b038181169690919087156114e257865f5260026020528260405f2054169182151580611abc575b895f52600360205260405f2060018154019055885f526002602052888a60405f20956001600160601b0360a01b9682888254161790557fddf252ad1be2c89b69c2b068fc378daa952ba7f163c4a11628f55a4df523b3ef5f80a4611aa4573b61198b575b50611732610a22858786611b0d565b6040519061173f826110fd565b8782526020820184815260408301908682526060840192611760898561153d565b426080860152895f52600960205260405f209585511690865416178555518051906001600160401b03821161111857819061179e6001880154611261565b601f8111611938575b50602090601f83116001146118ca575f926118bf575b50508160011b915f199060031b1c19161760018501555b5160028401555160038110156110ae576004916117f660809260038601611559565b0151910155845f52600a60205260405f20928354926801000000000000000084101561111857611850847f5ca04f1490bb749d271ec1e9a87c673acf2dd14e322f234c8e70abcce8f084c19660016118aa9701815561133b565b81549060031b9088821b915f19901b1916179055865f52600b60205260405f2060206040518092865180848901845e820190815203019020600160ff198254161790556118b560405194859460608652606086019061101c565b9260208501906110a1565b60408301520390a3565b015190505f806117bd565b9250600187015f5260205f20905f935b601f198416851061191d576001945083601f19811610611905575b505050811b0160018501556117d4565b01515f1960f88460031b161c191690555f80806118f5565b818101518355602094850194600190930192909101906118da565b909150600187015f5260205f20601f840160051c81019160208510611981575b90601f859493920160051c01905b81811061197357506117a7565b5f8155849350600101611966565b9091508190611958565b604051602081806119c4630a85bd0160e11b958683523360048401525f60248401528c604484015260806064840152608483019061101c565b03815f8d5af15f9181611a5f575b50611a3157883d15611a29573d906119e982611183565b916119f76040519384611162565b82523d5f602084013e5b81519182611a2257604051633250574960e11b815260048101839052602490fd5b6020915001fd5b606090611a01565b6001600160e01b03191603611a46575f611723565b604051633250574960e11b815260048101889052602490fd5b9091506020813d602011611a9c575b81611a7b60209383611162565b810103126101d157516001600160e01b0319811681036101d157905f6119d2565b3d9150611a6e565b6040516339e3563760e11b81525f6004820152602490fd5b5f89815260046020526040902080546001600160a01b0319169055835f52600360205260405f205f1981540190556116bf565b605a8110611afd5750600290565b604611611b0957600190565b5f90565b919060038110156110ae576020926111ef926101089260028103611d0b5750611b51604051611b3b81611147565b600481526311dbdb1960e21b87820152916120b3565b6040517f646174613a6170706c69636174696f6e2f6a736f6e2c7b00000000000000000087820152740113730b6b2911d1122b6b837bbb2b921b430b4b71605d1b60378201528251909687948482019391928085604c89015e860190670810985919d9488b60c21b604c8301527f226465736372697074696f6e223a2246696e616e6369616c204c69746572616360548301527f7920426164676520666f7220636f6d706c6574696e67206d6f64756c653a200060748301528051848201928184609383015e019061088b60f21b60938301526d2261747472696275746573223a5b60901b60958301527f7b2274726169745f74797065223a224d6f64756c65222c2276616c7565223a2260a383015251809260c383015e019062089f4b60ea1b60c38301527f7b2274726169745f74797065223a2253636f7265222c2276616c7565223a000060c683015280519283910160e483015e01611f4b60f21b60e48201527f7b2274726169745f74797065223a2254696572222c2276616c7565223a22000060e6820152610104925180928483015e019061227d60f01b90820152615d7d60f01b6101068201520360e8810184520182611162565b600103611d3957611b51604051611d2181611147565b600681526529b4b63b32b960d11b87820152916120b3565b611b51604051611d4881611147565b600681526542726f6e7a6560d01b87820152916120b3565b919091805f526020906006825260405f208451946001600160401b03861161111857611d8c8254611261565b601f8111611e7c575b508390601f8711600114611df8579580917ff8e1a15aba9398e019f0b49df1a4fde98ee17ae345cb5f6b5e2c27f5033e8ce796975f92611ded575b50508160011b915f199060031b1c19161790555b604051908152a1565b015190505f80611dd0565b90601f19871691835f52855f20925f5b818110611e6557509160019391897ff8e1a15aba9398e019f0b49df1a4fde98ee17ae345cb5f6b5e2c27f5033e8ce7999a9410611e4d575b505050811b019055611de4565b01515f1960f88460031b161c191690555f8080611e40565b929387600181928786015181550195019301611e08565b825f52845f20601f880160051c810191868910611eb5575b601f0160051c01905b818110611eaa5750611d95565b5f8155600101611e9d565b9091508190611e94565b9293909193843b611ed2575b5050505050565b604051630a85bd0160e11b8082526001600160a01b039586166004830152938516602482015260448101919091526080606482015260209594909316939290859082908190611f2590608483019061101c565b03815f885af15f9181611fc9575b50611f92575050503d5f14611f8a573d91611f4d83611183565b92611f5b6040519485611162565b83523d5f8285013e5b82519283611f8557604051633250574960e11b815260048101849052602490fd5b019050fd5b606091611f64565b9193506001600160e01b031990911603611fb157505f80808080611ecb565b60249060405190633250574960e11b82526004820152fd5b9091508581813d8311612002575b611fe18183611162565b810103126101d157516001600160e01b0319811681036101d157905f611f33565b503d611fd7565b6120128161159c565b50604051906120208261112c565b5f8252805f5260206006815261203860405f20611299565b92805180156120ac57845161207557505050612054915061159c565b505f6040516120628161112c565b5260405161206f8161112c565b5f815290565b6111ef93508294818492604051978895018486015e8301908282015f8152815193849201905e015f83820152038084520182611162565b5050505090565b8015612157575f81805b61214357506120cb81611183565b906120d96040519283611162565b808252601f196120e882611183565b013660208401375b8092801561213c575f198201918211611652578193600a92603090848406820180921161165257855111156113505760f81b6001600160f81b0319165f1a908401601f015304916120f0565b5050905090565b9061214f600a91611644565b9104806120bd565b5060405161216481611147565b60018152600360fc1b60208201529056fea26469706673582212205aa88698d29fa8008176fed5679ab05b69725977002765542531bfe64f072ced64736f6c63430008190033","linkReferences":{}},"methodIdentifiers":{"approve(address,uint256)":"095ea7b3","badges(uint256)":"98e36d8b","balanceOf(address)":"70a08231","batchMintBadges(address[],string[],uint256[])":"42ed9fac","getApproved(uint256)":"081812fc","getBadgeDetails(uint256)":"2950c4bd","getUserBadgeCount(address)":"69679575","getUserBadges(address)":"37c245fe","getUserTiers(address)":"82023931","hasCompleted(address,string)":"56b2c496","hasCompletedModule(address,string)":"3d18dc6f","isApprovedForAll(address,address)":"e985e9c5","mintBadge(address,string,uint256)":"824a5a2f","name()":"06fdde03","owner()":"8da5cb5b","ownerOf(uint256)":"6352211e","renounceOwnership()":"715018a6","safeTransferFrom(address,address,uint256)":"42842e0e","safeTransferFrom(address,address,uint256,bytes)":"b88d4fde","setApprovalForAll(address,bool)":"a22cb465","supportsInterface(bytes4)":"01ffc9a7","symbol()":"95d89b41","tokenURI(uint256)":"c87b56dd","transferFrom(address,address,uint256)":"23b872dd","transferOwnership(address)":"f2fde38b","upgradeBadgeTier(uint256,uint256)":"5248b038","userBadges(address,uint256)":"df91cc23"},"id":27}