{"abi":[{"type":"constructor","inputs":[{"name":"_token","type":"address","internalType":"address"}],"stateMutability":"nonpayable"},{"type":"receive","stateMutability":"payable"},{"type":"function","name":"batchRepayInvestment","inputs":[{"name":"loanId","type":"bytes32","internalType":"bytes32"},{"name":"lenders","type":"address[]","internalType":"address[]"},{"name":"amounts","type":"uint256[]","internalType":"uint256[]"}],"outputs":[],"stateMutability":"nonpayable"},{"type":"function","name":"getActiveInvestments","inputs":[{"name":"lender","type":"address","internalType":"address"}],"outputs":[{"name":"","type":"tuple[]","internalType":"struct Lending.Investment[]","components":[{"name":"loanId","type":"bytes32","internalType":"bytes32"},{"name":"lender","type":"address","internalType":"address"},{"name":"amount","type":"uint256","internalType":"uint256"},{"name":"interestRate","type":"uint256","internalType":"uint256"},{"name":"expectedReturn","type":"uint256","internalType":"uint256"},{"name":"repaid","type":"bool","internalType":"bool"},{"name":"investedAt","type":"uint256","internalType":"uint256"}]}],"stateMutability":"view"},{"type":"function","name":"getLenderInvestments","inputs":[{"name":"lender","type":"address","internalType":"address"}],"outputs":[{"name":"","type":"tuple[]","internalType":"struct Lending.Investment[]","components":[{"name":"loanId","type":"bytes32","internalType":"bytes32"},{"name":"lender","type":"address","internalType":"address"},{"name":"amount","type":"uint256","internalType":"uint256"},{"name":"interestRate","type":"uint256","internalType":"uint256"},{"name":"expectedReturn","type":"uint256","internalType":"uint256"},{"name":"repaid","type":"bool","internalType":"bool"},{"name":"investedAt","type":"uint256","internalType":"uint256"}]}],"stateMutability":"view"},{"type":"function","name":"getLenderTotalInvested","inputs":[{"name":"lender","type":"address","internalType":"address"}],"outputs":[{"name":"","type":"uint256","internalType":"uint256"}],"stateMutability":"view"},{"type":"function","name":"getLenderTotalReturns","inputs":[{"name":"lender","type":"address","internalType":"address"}],"outputs":[{"name":"","type":"uint256","internalType":"uint256"}],"stateMutability":"view"},{"type":"function","name":"getLoanInvestments","inputs":[{"name":"loanId","type":"bytes32","internalType":"bytes32"}],"outputs":[{"name":"","type":"tuple[]","internalType":"struct Lending.Investment[]","components":[{"name":"loanId","type":"bytes32","internalType":"bytes32"},{"name":"lender","type":"address","internalType":"address"},{"name":"amount","type":"uint256","internalType":"uint256"},{"name":"interestRate","type":"uint256","internalType":"uint256"},{"name":"expectedReturn","type":"uint256","internalType":"uint256"},{"name":"repaid","type":"bool","internalType":"bool"},{"name":"investedAt","type":"uint256","internalType":"uint256"}]}],"stateMutability":"view"},{"type":"function","name":"invest","inputs":[{"name":"loanId","type":"bytes32","internalType":"bytes32"},{"name":"amount","type":"uint256","internalType":"uint256"},{"name":"interestRate","type":"uint256","internalType":"uint256"},{"name":"expectedReturn","type":"uint256","internalType":"uint256"}],"outputs":[],"stateMutability":"nonpayable"},{"type":"function","name":"lenderInvestments","inputs":[{"name":"","type":"address","internalType":"address"},{"name":"","type":"uint256","internalType":"uint256"}],"outputs":[{"name":"loanId","type":"bytes32","internalType":"bytes32"},{"name":"lender","type":"address","internalType":"address"},{"name":"amount","type":"uint256","internalType":"uint256"},{"name":"interestRate","type":"uint256","internalType":"uint256"},{"name":"expectedReturn","type":"uint256","internalType":"uint256"},{"name":"repaid","type":"bool","internalType":"bool"},{"name":"investedAt","type":"uint256","internalType":"uint256"}],"stateMutability":"view"},{"type":"function","name":"loanInvestments","inputs":[{"name":"","type":"bytes32","internalType":"bytes32"},{"name":"","type":"uint256","internalType":"uint256"}],"outputs":[{"name":"loanId","type":"bytes32","internalType":"bytes32"},{"name":"lender","type":"address","internalType":"address"},{"name":"amount","type":"uint256","internalType":"uint256"},{"name":"interestRate","type":"uint256","internalType":"uint256"},{"name":"expectedReturn","type":"uint256","internalType":"uint256"},{"name":"repaid","type":"bool","internalType":"bool"},{"name":"investedAt","type":"uint256","internalType":"uint256"}],"stateMutability":"view"},{"type":"function","name":"loanTotalInvested","inputs":[{"name":"","type":"bytes32","internalType":"bytes32"}],"outputs":[{"name":"","type":"uint256","internalType":"uint256"}],"stateMutability":"view"},{"type":"function","name":"owner","inputs":[],"outputs":[{"name":"","type":"address","internalType":"address"}],"stateMutability":"view"},{"type":"function","name":"renounceOwnership","inputs":[],"outputs":[],"stateMutability":"nonpayable"},{"type":"function","name":"repayInvestment","inputs":[{"name":"loanId","type":"bytes32","internalType":"bytes32"},{"name":"lender","type":"address","internalType":"address"},{"name":"amount","type":"uint256","internalType":"uint256"}],"outputs":[],"stateMutability":"nonpayable"},{"type":"function","name":"token","inputs":[],"outputs":[{"name":"","type":"address","internalType":"contract IERC20"}],"stateMutability":"view"},{"type":"function","name":"transferOwnership","inputs":[{"name":"newOwner","type":"address","internalType":"address"}],"outputs":[],"stateMutability":"nonpayable"},{"type":"function","name":"withdrawETH","inputs":[],"outputs":[],"stateMutability":"nonpayable"},{"type":"function","name":"withdrawTokens","inputs":[{"name":"_token","type":"address","internalType":"address"},{"name":"amount","type":"uint256","internalType":"uint256"}],"outputs":[],"stateMutability":"nonpayable"},{"type":"event","name":"InvestmentMade","inputs":[{"name":"loanId","type":"bytes32","indexed":true,"internalType":"bytes32"},{"name":"lender","type":"address","indexed":true,"internalType":"address"},{"name":"amount","type":"uint256","indexed":false,"internalType":"uint256"},{"name":"interestRate","type":"uint256","indexed":false,"internalType":"uint256"},{"name":"expectedReturn","type":"uint256","indexed":false,"internalType":"uint256"}],"anonymous":false},{"type":"event","name":"InvestmentRepaid","inputs":[{"name":"loanId","type":"bytes32","indexed":true,"internalType":"bytes32"},{"name":"lender","type":"address","indexed":true,"internalType":"address"},{"name":"amount","type":"uint256","indexed":false,"internalType":"uint256"}],"anonymous":false},{"type":"event","name":"OwnershipTransferred","inputs":[{"name":"previousOwner","type":"address","indexed":true,"internalType":"address"},{"name":"newOwner","type":"address","indexed":true,"internalType":"address"}],"anonymous":false},{"type":"error","name":"OwnableInvalidOwner","inputs":[{"name":"owner","type":"address","internalType":"address"}]},{"type":"error","name":"OwnableUnauthorizedAccount","inputs":[{"name":"account","type":"address","internalType":"address"}]},{"type":"error","name":"ReentrancyGuardReentrantCall","inputs":[]},{"type":"error","name":"SafeERC20FailedOperation","inputs":[{"name":"token","type":"address","internalType":"address"}]}],"bytecode":{"object":"0x60a03461014857601f61136b38819003918201601f19168301916001600160401b0383118484101761014c5780849260209460405283398101031261014857516001600160a01b0380821691829003610148573315610130575f543360018060a01b03198216175f55604051913391167f8be0079c531659141344cd1fd0a4f28419497f9722a3daafe3b4186f6b6457e05f80a360017f9b779b17422d0df92223018b32b4d1fa46e071723d6817e2486d003becc55f005581156100ee575060805260405161120a9081610161823960805181818161016c0152818161050d0152818161075d0152610ad30152f35b62461bcd60e51b815260206004820152601560248201527f496e76616c696420746f6b656e206164647265737300000000000000000000006044820152606490fd5b604051631e4fbdf760e01b81525f6004820152602490fd5b5f80fd5b634e487b7160e01b5f52604160045260245ffdfe60406080815260048036101561001e575b5050361561001c575f80fd5b005b5f3560e01c908163055e565214610d7457816306b091f914610cf25781630f93561c14610ccb57816366b380ec14610c4b578163715018a614610bf45781637b53be7214610b745781638da5cb5b14610b4d5781638dd87cee146109b55781639fae886b14610940578163a5352e121461071e578163ae72680714610479578163b0645eab14610329578163e086e5ec146102da578163f2fde38b1461024d578163f8bd333d1461019b57508063fc0c546a146101585763fe2c3783146100e55780610010565b34610154576020366003190112610154576001600160a01b03610106610e3d565b165f52600280602052815f20905f915f918154915b82841061012c576020858751908152f35b9091929361014a600191846101418886610e10565b50015490610f0b565b940192919061011b565b5f80fd5b5034610154575f36600319011261015457517f00000000000000000000000000000000000000000000000000000000000000006001600160a01b03168152602090f35b82346101545780600319360112610154576101b4610e3d565b906024359060018060a01b038093165f526002602052805f20805483101561015457610249926101e391610e10565b508054936001820154169460028201549060038301549083015491600660ff60058601541694015494519788978893909796959260c0959260e0860199865260018060a01b03166020860152604085015260608401526080830152151560a08201520152565b0390f35b90503461015457602036600319011261015457610268610e3d565b906102716110e5565b6001600160a01b039182169283156102c45750505f54826bffffffffffffffffffffffff60a01b8216175f55167f8be0079c531659141344cd1fd0a4f28419497f9722a3daafe3b4186f6b6457e05f80a3005b905f6024925191631e4fbdf760e01b8352820152fd5b8234610154575f366003190112610154576102f36110e5565b5f805481908190819047906001600160a01b0316828215610320575bf11561031757005b513d5f823e3d90fd5b506108fc61030f565b823461015457602080600319360112610154576001600160a01b0361034c610e3d565b165f908152600260205282812080549192835b838110610445575061037861037385610f86565b610f60565b93808552610388601f1991610f86565b015f5b81811061040a575050505f905f5b8381106103ad578551806102498782610e53565b60ff60056103bb8385610e10565b50015416156103cd575b600101610399565b916104026001916103e76103e18686610e10565b50610f9e565b6103f18289610ff7565b526103fc8188610ff7565b506110d7565b9290506103c5565b8290610414610f2c565b5f81525f838201525f898201525f60608201525f60808201525f60a08201525f60c08201528282890101520161038b565b60ff60056104538386610e10565b5001541615610465575b60010161035f565b936104716001916110d7565b94905061045d565b9050346101545760603660031901126101545780356024359267ffffffffffffffff93848111610154576104b09036908501610eda565b929094604435908111610154576104ca9036908601610eda565b9590946104d56110e5565b6104dd611185565b8685036106e957505f5b848110610568575f8087895b808410610544575f546105319084906001600160a01b03167f0000000000000000000000000000000000000000000000000000000000000000611110565b60015f805160206111b583398151915255005b909161055e6001916105578685876110b3565b3590610f0b565b93019291906104f3565b61057b6105768287856110b3565b6110c3565b5f8481526001602081815287832090936001600160a01b03939084169190835b610677575b50505f5260028352865f20815f905b610609575b505050847f2b9b9998b51f4c4344c4936a8acc8269af65b9b1d113975592a1f72250fdecba84938a936105f9868e6105f36105768f9b60019c8e6110b3565b976110b3565b35948a519586521693a3016104e7565b819b959a9b999497989996939654811015610666579082828a61062d839585610e10565b505414610649575b0190919b9a959b99989794999693966105af565b60056106558285610e10565b5001805460ff191683179055610635565b9a99949a98979693989592956105b4565b819c969b9c9a9598999a979497548110156106d857908382848a8361069d819787610e10565b50015416146106bb575b0190919c9b969c9a9998959a97949761059b565b60056106c78285610e10565b5001805460ff1916831790556106a7565b9b9a959b99989794999693966105a0565b606490602085519162461bcd60e51b8352820152600f60248201526e098cadccee8d040dad2e6dac2e8c6d608b1b6044820152fd5b905034610154576080366003190112610154578035906024359260443560643592610747611185565b85156108ec57811515806108e1575b156108a6577f0000000000000000000000000000000000000000000000000000000000000000908351906323b872dd60e01b5f523381523060245287604452602092835f60648180855af160015f5114811615610887575b8387525f6060521561086a5750505061080f6107c8610f2c565b868152338382015287858201528360608201528560808201525f60a08201524260c0820152865f526001835261080081865f2061100b565b335f5260028352845f2061100b565b845f5260038152825f20610824878254610f0b565b905582519586528501528301527fbfc8417e8c17fd6f3222557453e547ffb9ebaa2a6288d98af9c1015ba926841760603393a360015f805160206111b583398151915255005b635274afe760e01b83526001600160a01b03169082015260249150fd5b600181151661089d57813b15153d1516166107ae565b833d5f823e3d90fd5b606490602084519162461bcd60e51b83528201526015602482015274496e76616c696420696e746572657374207261746560581b6044820152fd5b506064821115610756565b608490602084519162461bcd60e51b8352820152602860248201527f496e766573746d656e7420616d6f756e74206d75737420626520677265617465604482015267072207468616e20360c41b6064820152fd5b90503461015457602090602060031936011261015457355f526001916001602052805f2080549061097361037383610f86565b9382855260208501915f5260205f205f925b848410610999578551806102498982610e53565b60078389926109a785610f9e565b815201920193019290610985565b905034610154576060366003190112610154576001600160a01b039160248035848116928435929184900361015457604435906109f06110e5565b6109f8611185565b835f52600196879660209488602052835f20895f905b610a26575b5f805160206111b58339815191528b9055005b8154811015610b485789858c610a3c8486610e10565b500154161480610b2f575b610a53578a018a610a0e565b600592939495969798999a50610a6891610e10565b5001805460ff19168a17905583519182850167ffffffffffffffff811184821017610b1d57855289835286830192873685375115610b0c575050837f2b9b9998b51f4c4344c4936a8acc8269af65b9b1d113975592a1f72250fdecba9594939288610af793525f54167f0000000000000000000000000000000000000000000000000000000000000000611110565b51908152a3805f808080808080808080610a13565b603290634e487b7160e01b5f52525ffd5b50604190634e487b7160e01b5f52525ffd5b5060ff6005610b3e8385610e10565b5001541615610a47565b610a13565b8234610154575f366003190112610154575f5490516001600160a01b039091168152602090f35b823461015457602080600319360112610154576001600160a01b03610b97610e3d565b165f526002602052815f20805490610bb161037383610f86565b9282845260208401915f5260205f205f925b848410610bd7578651806102498882610e53565b600783600192610be685610f9e565b815201920193019290610bc3565b34610154575f36600319011261015457610c0c6110e5565b5f80546001600160a01b0319811682556001600160a01b03167f8be0079c531659141344cd1fd0a4f28419497f9722a3daafe3b4186f6b6457e08280a3005b905034610154576020366003190112610154576001600160a01b03610c6e610e3d565b165f526002602052815f205f915f918054925b838110610c92576020858751908152f35b60ff6005610ca08385610e10565b50015416610cb1575b600101610c81565b93610cc3600191846101418886610e10565b949050610ca9565b823461015457602036600319011261015457602091355f5260038252805f20549051908152f35b905034610154578160031936011261015457610d0c610e3d565b90610d156110e5565b6001600160a01b03918216908115610d395761001c8383602435915f541690611110565b606490602085519162461bcd60e51b83528201526015602482015274496e76616c696420746f6b656e206164647265737360581b6044820152fd5b823461015457806003193601126101545760243582355f526001602052815f2080548210156101545761024991610daa91610e10565b50805460018201546002830154600384015496840154600585015460069095015496519384526001600160a01b03909216602084015260408301526060820195909552608081019490945260ff16151560a084015260c0830191909152819060e0820190565b8054821015610e29575f52600760205f20910201905f90565b634e487b7160e01b5f52603260045260245ffd5b600435906001600160a01b038216820361015457565b60208082019080835283518092528060408094019401925f905b838210610e7c57505050505090565b845180518752808401516001600160a01b0316878501528082015187830152606080820151908801526080808201519088015260a08082015115159088015260c0908101519087015260e09095019493820193600190910190610e6d565b9181601f840112156101545782359167ffffffffffffffff8311610154576020808501948460051b01011161015457565b91908201809211610f1857565b634e487b7160e01b5f52601160045260245ffd5b6040519060e0820182811067ffffffffffffffff821117610f4c57604052565b634e487b7160e01b5f52604160045260245ffd5b6040519190601f01601f1916820167ffffffffffffffff811183821017610f4c57604052565b67ffffffffffffffff8111610f4c5760051b60200190565b906006610fa9610f2c565b8354815260018401546001600160a01b03166020820152600284015460408201526003840154606082015260048401546080820152600584015460ff16151560a082015292015460c0830152565b8051821015610e295760209160051b010190565b805468010000000000000000811015610f4c5761102d91600182018155610e10565b9190916110a05760c0816006925184556001840160018060a01b036020830151166bffffffffffffffffffffffff60a01b8254161790556040810151600285015560608101516003850155608081015160048501556005840160a0820151151560ff801983541691161790550151910155565b634e487b7160e01b5f525f60045260245ffd5b9190811015610e295760051b0190565b356001600160a01b03811681036101545790565b5f198114610f185760010190565b5f546001600160a01b031633036110f857565b60405163118cdaa760e01b8152336004820152602490fd5b60405163a9059cbb60e01b5f9081526001600160a01b039384166004526024949094529260209060448180855af160015f511481161561116f575b836040521561115957505050565b635274afe760e01b835216600482015260249150fd5b600181151661089d57813b15153d15161661114b565b5f805160206111b583398151915260028154146111a25760029055565b604051633ee5aeb560e01b8152600490fdfe9b779b17422d0df92223018b32b4d1fa46e071723d6817e2486d003becc55f00a2646970667358221220cc924d5c14b6ccdc793b7d159443390f1436daa42c39afd7427ec083f6dc8de664736f6c63430008190033","linkReferences":{}},"methodIdentifiers":{"batchRepayInvestment(bytes32,address[],uint256[])":"ae726807","getActiveInvestments(address)":"b0645eab","getLenderInvestments(address)":"7b53be72","getLenderTotalInvested(address)":"fe2c3783","getLenderTotalReturns(address)":"66b380ec","getLoanInvestments(bytes32)":"9fae886b","invest(bytes32,uint256,uint256,uint256)":"a5352e12","lenderInvestments(address,uint256)":"f8bd333d","loanInvestments(bytes32,uint256)":"055e5652","loanTotalInvested(bytes32)":"0f93561c","owner()":"8da5cb5b","renounceOwnership()":"715018a6","repayInvestment(bytes32,address,uint256)":"8dd87cee","token()":"fc0c546a","transferOwnership(address)":"f2fde38b","withdrawETH()":"e086e5ec","withdrawTokens(address,uint256)":"06b091f9"},"id":26}