{
  "_format": "hh-sol-artifact-1",
  "contractName": "Loan",
  "sourceName": "src/Loan.sol",
  "abi": [
    {
      "inputs": [],
      "stateMutability": "nonpayable",
      "type": "constructor"
    },
    {
      "inputs": [
        {
          "internalType": "address",
          "name": "owner",
          "type": "address"
        }
      ],
      "name": "OwnableInvalidOwner",
      "type": "error"
    },
    {
      "inputs": [
        {
          "internalType": "address",
          "name": "account",
          "type": "address"
        }
      ],
      "name": "OwnableUnauthorizedAccount",
      "type": "error"
    },
    {
      "inputs": [],
      "name": "ReentrancyGuardReentrantCall",
      "type": "error"
    },
    {
      "anonymous": false,
      "inputs": [
        {
          "indexed": true,
          "internalType": "bytes32",
          "name": "id",
          "type": "bytes32"
        }
      ],
      "name": "LoanApproved",
      "type": "event"
    },
    {
      "anonymous": false,
      "inputs": [
        {
          "indexed": true,
          "internalType": "bytes32",
          "name": "id",
          "type": "bytes32"
        },
        {
          "indexed": true,
          "internalType": "address",
          "name": "borrower",
          "type": "address"
        },
        {
          "indexed": false,
          "internalType": "string",
          "name": "borrowerName",
          "type": "string"
        },
        {
          "indexed": false,
          "internalType": "uint256",
          "name": "amount",
          "type": "uint256"
        },
        {
          "indexed": false,
          "internalType": "uint256",
          "name": "interestRate",
          "type": "uint256"
        }
      ],
      "name": "LoanCreated",
      "type": "event"
    },
    {
      "anonymous": false,
      "inputs": [
        {
          "indexed": true,
          "internalType": "bytes32",
          "name": "id",
          "type": "bytes32"
        }
      ],
      "name": "LoanDefaulted",
      "type": "event"
    },
    {
      "anonymous": false,
      "inputs": [
        {
          "indexed": true,
          "internalType": "bytes32",
          "name": "id",
          "type": "bytes32"
        },
        {
          "indexed": true,
          "internalType": "address",
          "name": "lender",
          "type": "address"
        },
        {
          "indexed": false,
          "internalType": "uint256",
          "name": "amount",
          "type": "uint256"
        }
      ],
      "name": "LoanFunded",
      "type": "event"
    },
    {
      "anonymous": false,
      "inputs": [
        {
          "indexed": true,
          "internalType": "bytes32",
          "name": "id",
          "type": "bytes32"
        }
      ],
      "name": "LoanRejected",
      "type": "event"
    },
    {
      "anonymous": false,
      "inputs": [
        {
          "indexed": true,
          "internalType": "bytes32",
          "name": "id",
          "type": "bytes32"
        },
        {
          "indexed": false,
          "internalType": "uint256",
          "name": "amount",
          "type": "uint256"
        }
      ],
      "name": "LoanRepaid",
      "type": "event"
    },
    {
      "anonymous": false,
      "inputs": [
        {
          "indexed": true,
          "internalType": "address",
          "name": "previousOwner",
          "type": "address"
        },
        {
          "indexed": true,
          "internalType": "address",
          "name": "newOwner",
          "type": "address"
        }
      ],
      "name": "OwnershipTransferred",
      "type": "event"
    },
    {
      "inputs": [
        {
          "internalType": "uint256",
          "name": "",
          "type": "uint256"
        }
      ],
      "name": "allLoanIds",
      "outputs": [
        {
          "internalType": "bytes32",
          "name": "",
          "type": "bytes32"
        }
      ],
      "stateMutability": "view",
      "type": "function"
    },
    {
      "inputs": [
        {
          "internalType": "bytes32",
          "name": "loanId",
          "type": "bytes32"
        }
      ],
      "name": "approveLoan",
      "outputs": [],
      "stateMutability": "nonpayable",
      "type": "function"
    },
    {
      "inputs": [
        {
          "internalType": "address",
          "name": "",
          "type": "address"
        },
        {
          "internalType": "uint256",
          "name": "",
          "type": "uint256"
        }
      ],
      "name": "borrowerLoanIds",
      "outputs": [
        {
          "internalType": "bytes32",
          "name": "",
          "type": "bytes32"
        }
      ],
      "stateMutability": "view",
      "type": "function"
    },
    {
      "inputs": [
        {
          "internalType": "bytes32",
          "name": "loanId",
          "type": "bytes32"
        }
      ],
      "name": "calculateTotalRepayment",
      "outputs": [
        {
          "internalType": "uint256",
          "name": "",
          "type": "uint256"
        }
      ],
      "stateMutability": "view",
      "type": "function"
    },
    {
      "inputs": [
        {
          "internalType": "string",
          "name": "borrowerName",
          "type": "string"
        },
        {
          "internalType": "uint256",
          "name": "amount",
          "type": "uint256"
        },
        {
          "internalType": "uint256",
          "name": "interestRate",
          "type": "uint256"
        },
        {
          "internalType": "uint256",
          "name": "duration",
          "type": "uint256"
        },
        {
          "internalType": "string",
          "name": "purpose",
          "type": "string"
        },
        {
          "internalType": "string",
          "name": "description",
          "type": "string"
        }
      ],
      "name": "createLoan",
      "outputs": [
        {
          "internalType": "bytes32",
          "name": "",
          "type": "bytes32"
        }
      ],
      "stateMutability": "nonpayable",
      "type": "function"
    },
    {
      "inputs": [
        {
          "internalType": "bytes32",
          "name": "loanId",
          "type": "bytes32"
        }
      ],
      "name": "fundLoan",
      "outputs": [],
      "stateMutability": "payable",
      "type": "function"
    },
    {
      "inputs": [],
      "name": "getActiveLoans",
      "outputs": [
        {
          "components": [
            {
              "internalType": "bytes32",
              "name": "id",
              "type": "bytes32"
            },
            {
              "internalType": "address",
              "name": "borrower",
              "type": "address"
            },
            {
              "internalType": "string",
              "name": "borrowerName",
              "type": "string"
            },
            {
              "internalType": "uint256",
              "name": "amount",
              "type": "uint256"
            },
            {
              "internalType": "uint256",
              "name": "interestRate",
              "type": "uint256"
            },
            {
              "internalType": "uint256",
              "name": "duration",
              "type": "uint256"
            },
            {
              "internalType": "string",
              "name": "purpose",
              "type": "string"
            },
            {
              "internalType": "string",
              "name": "description",
              "type": "string"
            },
            {
              "internalType": "uint256",
              "name": "fundedAmount",
              "type": "uint256"
            },
            {
              "internalType": "enum Loan.LoanStatus",
              "name": "status",
              "type": "uint8"
            },
            {
              "internalType": "uint256",
              "name": "createdAt",
              "type": "uint256"
            },
            {
              "internalType": "uint256",
              "name": "fundedAt",
              "type": "uint256"
            },
            {
              "internalType": "uint256",
              "name": "repaidAt",
              "type": "uint256"
            }
          ],
          "internalType": "struct Loan.LoanData[]",
          "name": "",
          "type": "tuple[]"
        }
      ],
      "stateMutability": "view",
      "type": "function"
    },
    {
      "inputs": [],
      "name": "getAllLoans",
      "outputs": [
        {
          "components": [
            {
              "internalType": "bytes32",
              "name": "id",
              "type": "bytes32"
            },
            {
              "internalType": "address",
              "name": "borrower",
              "type": "address"
            },
            {
              "internalType": "string",
              "name": "borrowerName",
              "type": "string"
            },
            {
              "internalType": "uint256",
              "name": "amount",
              "type": "uint256"
            },
            {
              "internalType": "uint256",
              "name": "interestRate",
              "type": "uint256"
            },
            {
              "internalType": "uint256",
              "name": "duration",
              "type": "uint256"
            },
            {
              "internalType": "string",
              "name": "purpose",
              "type": "string"
            },
            {
              "internalType": "string",
              "name": "description",
              "type": "string"
            },
            {
              "internalType": "uint256",
              "name": "fundedAmount",
              "type": "uint256"
            },
            {
              "internalType": "enum Loan.LoanStatus",
              "name": "status",
              "type": "uint8"
            },
            {
              "internalType": "uint256",
              "name": "createdAt",
              "type": "uint256"
            },
            {
              "internalType": "uint256",
              "name": "fundedAt",
              "type": "uint256"
            },
            {
              "internalType": "uint256",
              "name": "repaidAt",
              "type": "uint256"
            }
          ],
          "internalType": "struct Loan.LoanData[]",
          "name": "",
          "type": "tuple[]"
        }
      ],
      "stateMutability": "view",
      "type": "function"
    },
    {
      "inputs": [
        {
          "internalType": "address",
          "name": "borrower",
          "type": "address"
        }
      ],
      "name": "getBorrowerLoans",
      "outputs": [
        {
          "components": [
            {
              "internalType": "bytes32",
              "name": "id",
              "type": "bytes32"
            },
            {
              "internalType": "address",
              "name": "borrower",
              "type": "address"
            },
            {
              "internalType": "string",
              "name": "borrowerName",
              "type": "string"
            },
            {
              "internalType": "uint256",
              "name": "amount",
              "type": "uint256"
            },
            {
              "internalType": "uint256",
              "name": "interestRate",
              "type": "uint256"
            },
            {
              "internalType": "uint256",
              "name": "duration",
              "type": "uint256"
            },
            {
              "internalType": "string",
              "name": "purpose",
              "type": "string"
            },
            {
              "internalType": "string",
              "name": "description",
              "type": "string"
            },
            {
              "internalType": "uint256",
              "name": "fundedAmount",
              "type": "uint256"
            },
            {
              "internalType": "enum Loan.LoanStatus",
              "name": "status",
              "type": "uint8"
            },
            {
              "internalType": "uint256",
              "name": "createdAt",
              "type": "uint256"
            },
            {
              "internalType": "uint256",
              "name": "fundedAt",
              "type": "uint256"
            },
            {
              "internalType": "uint256",
              "name": "repaidAt",
              "type": "uint256"
            }
          ],
          "internalType": "struct Loan.LoanData[]",
          "name": "",
          "type": "tuple[]"
        }
      ],
      "stateMutability": "view",
      "type": "function"
    },
    {
      "inputs": [
        {
          "internalType": "bytes32",
          "name": "loanId",
          "type": "bytes32"
        }
      ],
      "name": "getLoan",
      "outputs": [
        {
          "components": [
            {
              "internalType": "bytes32",
              "name": "id",
              "type": "bytes32"
            },
            {
              "internalType": "address",
              "name": "borrower",
              "type": "address"
            },
            {
              "internalType": "string",
              "name": "borrowerName",
              "type": "string"
            },
            {
              "internalType": "uint256",
              "name": "amount",
              "type": "uint256"
            },
            {
              "internalType": "uint256",
              "name": "interestRate",
              "type": "uint256"
            },
            {
              "internalType": "uint256",
              "name": "duration",
              "type": "uint256"
            },
            {
              "internalType": "string",
              "name": "purpose",
              "type": "string"
            },
            {
              "internalType": "string",
              "name": "description",
              "type": "string"
            },
            {
              "internalType": "uint256",
              "name": "fundedAmount",
              "type": "uint256"
            },
            {
              "internalType": "enum Loan.LoanStatus",
              "name": "status",
              "type": "uint8"
            },
            {
              "internalType": "uint256",
              "name": "createdAt",
              "type": "uint256"
            },
            {
              "internalType": "uint256",
              "name": "fundedAt",
              "type": "uint256"
            },
            {
              "internalType": "uint256",
              "name": "repaidAt",
              "type": "uint256"
            }
          ],
          "internalType": "struct Loan.LoanData",
          "name": "",
          "type": "tuple"
        }
      ],
      "stateMutability": "view",
      "type": "function"
    },
    {
      "inputs": [
        {
          "internalType": "bytes32",
          "name": "",
          "type": "bytes32"
        }
      ],
      "name": "loans",
      "outputs": [
        {
          "internalType": "bytes32",
          "name": "id",
          "type": "bytes32"
        },
        {
          "internalType": "address",
          "name": "borrower",
          "type": "address"
        },
        {
          "internalType": "string",
          "name": "borrowerName",
          "type": "string"
        },
        {
          "internalType": "uint256",
          "name": "amount",
          "type": "uint256"
        },
        {
          "internalType": "uint256",
          "name": "interestRate",
          "type": "uint256"
        },
        {
          "internalType": "uint256",
          "name": "duration",
          "type": "uint256"
        },
        {
          "internalType": "string",
          "name": "purpose",
          "type": "string"
        },
        {
          "internalType": "string",
          "name": "description",
          "type": "string"
        },
        {
          "internalType": "uint256",
          "name": "fundedAmount",
          "type": "uint256"
        },
        {
          "internalType": "enum Loan.LoanStatus",
          "name": "status",
          "type": "uint8"
        },
        {
          "internalType": "uint256",
          "name": "createdAt",
          "type": "uint256"
        },
        {
          "internalType": "uint256",
          "name": "fundedAt",
          "type": "uint256"
        },
        {
          "internalType": "uint256",
          "name": "repaidAt",
          "type": "uint256"
        }
      ],
      "stateMutability": "view",
      "type": "function"
    },
    {
      "inputs": [
        {
          "internalType": "bytes32",
          "name": "loanId",
          "type": "bytes32"
        }
      ],
      "name": "markAsDefaulted",
      "outputs": [],
      "stateMutability": "nonpayable",
      "type": "function"
    },
    {
      "inputs": [],
      "name": "owner",
      "outputs": [
        {
          "internalType": "address",
          "name": "",
          "type": "address"
        }
      ],
      "stateMutability": "view",
      "type": "function"
    },
    {
      "inputs": [
        {
          "internalType": "bytes32",
          "name": "loanId",
          "type": "bytes32"
        }
      ],
      "name": "rejectLoan",
      "outputs": [],
      "stateMutability": "nonpayable",
      "type": "function"
    },
    {
      "inputs": [],
      "name": "renounceOwnership",
      "outputs": [],
      "stateMutability": "nonpayable",
      "type": "function"
    },
    {
      "inputs": [
        {
          "internalType": "bytes32",
          "name": "loanId",
          "type": "bytes32"
        }
      ],
      "name": "repayLoan",
      "outputs": [],
      "stateMutability": "payable",
      "type": "function"
    },
    {
      "inputs": [
        {
          "internalType": "address",
          "name": "newOwner",
          "type": "address"
        }
      ],
      "name": "transferOwnership",
      "outputs": [],
      "stateMutability": "nonpayable",
      "type": "function"
    },
    {
      "inputs": [],
      "name": "withdrawFunds",
      "outputs": [],
      "stateMutability": "nonpayable",
      "type": "function"
    },
    {
      "stateMutability": "payable",
      "type": "receive"
    }
  ],
  "bytecode": "0x6080604052348015600e575f80fd5b503380603357604051631e4fbdf760e01b81525f600482015260240160405180910390fd5b603a816063565b5060017f9b779b17422d0df92223018b32b4d1fa46e071723d6817e2486d003becc55f005560b2565b5f80546001600160a01b038381166001600160a01b0319831681178455604051919092169283917f8be0079c531659141344cd1fd0a4f28419497f9722a3daafe3b4186f6b6457e09190a35050565b6123ae806100bf5f395ff3fe608060405260043610610108575f3560e01c8063a56e11bc11610092578063c961453811610062578063c9614538146102bd578063d017fa94146102dc578063eee8b7ff146102ef578063f2fde38b1461030e578063f9bccab11461032d575f80fd5b8063a56e11bc14610233578063a5bfd16a14610252578063bbfe6e9514610266578063c4a9081514610285575f80fd5b80633f84210f116100d85780633f84210f1461019b578063715018a6146101ae57806373f1869b146101c25780638932f5f7146101e15780638da5cb5b1461020d575f80fd5b806309299c1514610113578063121ed2a714610145578063222ff53d1461016657806324600fc314610185575f80fd5b3661010f57005b5f80fd5b34801561011e575f80fd5b5061013261012d366004611dd1565b61034c565b6040519081526020015b60405180910390f35b348015610150575f80fd5b506101596105b5565b60405161013c9190611fa9565b348015610171575f80fd5b5061013261018036600461200b565b6109d8565b348015610190575f80fd5b506101996109f7565b005b6101996101a936600461200b565b610a39565b3480156101b9575f80fd5b50610199610bf4565b3480156101cd575f80fd5b506101996101dc36600461200b565b610c07565b3480156101ec575f80fd5b506102006101fb36600461200b565b610ce2565b60405161013c9190612022565b348015610218575f80fd5b505f546040516001600160a01b03909116815260200161013c565b34801561023e575f80fd5b5061013261024d366004612056565b610f52565b34801561025d575f80fd5b50610159610f7d565b348015610271575f80fd5b5061019961028036600461200b565b611292565b348015610290575f80fd5b506102a461029f36600461200b565b61136d565b60405161013c9d9c9b9a9998979695949392919061207e565b3480156102c8575f80fd5b506101326102d736600461200b565b61156d565b6101996102ea36600461200b565b6115cb565b3480156102fa575f80fd5b50610159610309366004612121565b6117b5565b348015610319575f80fd5b50610199610328366004612121565b611adf565b348015610338575f80fd5b5061019961034736600461200b565b611b19565b5f8086116103ac5760405162461bcd60e51b815260206004820152602260248201527f4c6f616e20616d6f756e74206d7573742062652067726561746572207468616e604482015261020360f41b60648201526084015b60405180910390fd5b5f851180156103bc575060648511155b6104005760405162461bcd60e51b8152602060048201526015602482015274496e76616c696420696e746572657374207261746560581b60448201526064016103a3565b5f841161044f5760405162461bcd60e51b815260206004820152601f60248201527f4475726174696f6e206d7573742062652067726561746572207468616e20300060448201526064016103a3565b6040516bffffffffffffffffffffffff193360601b166020820152603481018790524260548201525f9060740160408051601f1981840301815291815281516020928301205f8181526001938490529190912081815591820180546001600160a01b031916331790559150600281016104c88a826121b8565b50600381018890556004810187905560058101869055600681016104ec86826121b8565b50600781016104fb85826121b8565b505f6008820181905560098201805460ff1916905542600a830155338082526002602090815260408084208054600181810183559186529285209092018690556003805492830181559093527fc2575a0e9e593c00f959f8c92f12db2869c3395a3b0502d05e2516446f71f85b01849055905183907f262e882c9cefa0fcc11fa0b95449621ecc14639853e2b40575c66cc84d43bccb906105a1908d908d908d90612278565b60405180910390a350979650505050505050565b60605f805b60035481101561065f575f60015f600384815481106105db576105db61229c565b905f5260205f20015481526020019081526020015f2090506001600581111561060657610606611e9c565b600982015460ff16600581111561061f5761061f611e9c565b148061064357506002600982015460ff16600581111561064157610641611e9c565b145b156106565782610652816122c4565b9350505b506001016105ba565b505f8167ffffffffffffffff81111561067a5761067a611d34565b6040519080825280602002602001820160405280156106b357816020015b6106a0611cb9565b8152602001906001900390816106985790505b5090505f805b6003548110156109cf575f60015f600384815481106106da576106da61229c565b905f5260205f20015481526020019081526020015f2090506001600581111561070557610705611e9c565b600982015460ff16600581111561071e5761071e611e9c565b148061074257506002600982015460ff16600581111561074057610740611e9c565b145b156109c657604080516101a0810182528254815260018301546001600160a01b031660208201526002830180549192849290840191906107819061213a565b80601f01602080910402602001604051908101604052809291908181526020018280546107ad9061213a565b80156107f85780601f106107cf576101008083540402835291602001916107f8565b820191905f5260205f20905b8154815290600101906020018083116107db57829003601f168201915b5050505050815260200160038201548152602001600482015481526020016005820154815260200160068201805461082f9061213a565b80601f016020809104026020016040519081016040528092919081815260200182805461085b9061213a565b80156108a65780601f1061087d576101008083540402835291602001916108a6565b820191905f5260205f20905b81548152906001019060200180831161088957829003601f168201915b505050505081526020016007820180546108bf9061213a565b80601f01602080910402602001604051908101604052809291908181526020018280546108eb9061213a565b80156109365780601f1061090d57610100808354040283529160200191610936565b820191905f5260205f20905b81548152906001019060200180831161091957829003601f168201915b505050918352505060088201546020820152600982015460409091019060ff16600581111561096757610967611e9c565b600581111561097857610978611e9c565b8152602001600a8201548152602001600b8201548152602001600c820154815250508484815181106109ac576109ac61229c565b602002602001018190525082806109c2906122c4565b9350505b506001016106b9565b50909392505050565b600381815481106109e7575f80fd5b5f91825260209091200154905081565b6109ff611bf4565b5f80546040516001600160a01b03909116914780156108fc02929091818181858888f19350505050158015610a36573d5f803e3d5ffd5b50565b610a41611c20565b5f818152600160208190526040909120908101546001600160a01b0316610a7a5760405162461bcd60e51b81526004016103a3906122dc565b6002600982015460ff166005811115610a9557610a95611e9c565b14610ad75760405162461bcd60e51b8152602060048201526012602482015271131bd85b881a5cc81b9bdd08199d5b99195960721b60448201526064016103a3565b5f3411610b365760405162461bcd60e51b815260206004820152602760248201527f52657061796d656e7420616d6f756e74206d75737420626520677265617465726044820152660207468616e20360cc1b60648201526084016103a3565b5f610b408361156d565b905080341015610b925760405162461bcd60e51b815260206004820152601d60248201527f496e73756666696369656e742072657061796d656e7420616d6f756e7400000060448201526064016103a3565b60098201805460ff1916600317905542600c83015560405134815283907f1d7f9b884cc43b9a5c67bd7c6f6fb5ddb8cb3eb3994e934e8448d7bf4a4a25c99060200160405180910390a25050610a3660015f8051602061235983398151915255565b610bfc611bf4565b610c055f611c3b565b565b610c0f611bf4565b5f818152600160208190526040909120908101546001600160a01b0316610c485760405162461bcd60e51b81526004016103a3906122dc565b5f600982015460ff166005811115610c6257610c62611e9c565b14610ca55760405162461bcd60e51b81526020600482015260136024820152724c6f616e206973206e6f742070656e64696e6760681b60448201526064016103a3565b60098101805460ff1916600517905560405182907f4f1a18f27a9e1cb8f4d35a0594859d81f8ba34f337fbe7a6f89b15be6edef294905f90a25050565b610cea611cb9565b5f8281526001602081815260409283902083516101a08101855281548152928101546001600160a01b0316918301919091526002810180549293919291840191610d339061213a565b80601f0160208091040260200160405190810160405280929190818152602001828054610d5f9061213a565b8015610daa5780601f10610d8157610100808354040283529160200191610daa565b820191905f5260205f20905b815481529060010190602001808311610d8d57829003601f168201915b50505050508152602001600382015481526020016004820154815260200160058201548152602001600682018054610de19061213a565b80601f0160208091040260200160405190810160405280929190818152602001828054610e0d9061213a565b8015610e585780601f10610e2f57610100808354040283529160200191610e58565b820191905f5260205f20905b815481529060010190602001808311610e3b57829003601f168201915b50505050508152602001600782018054610e719061213a565b80601f0160208091040260200160405190810160405280929190818152602001828054610e9d9061213a565b8015610ee85780601f10610ebf57610100808354040283529160200191610ee8565b820191905f5260205f20905b815481529060010190602001808311610ecb57829003601f168201915b505050918352505060088201546020820152600982015460409091019060ff166005811115610f1957610f19611e9c565b6005811115610f2a57610f2a611e9c565b8152600a8201546020820152600b8201546040820152600c9091015460609091015292915050565b6002602052815f5260405f208181548110610f6b575f80fd5b905f5260205f20015f91509150505481565b6003546060905f9067ffffffffffffffff811115610f9d57610f9d611d34565b604051908082528060200260200182016040528015610fd657816020015b610fc3611cb9565b815260200190600190039081610fbb5790505b5090505f5b60035481101561128c5760015f60038381548110610ffb57610ffb61229c565b5f9182526020808320909101548352828101939093526040918201902081516101a0810183528154815260018201546001600160a01b031693810193909352600281018054919284019161104e9061213a565b80601f016020809104026020016040519081016040528092919081815260200182805461107a9061213a565b80156110c55780601f1061109c576101008083540402835291602001916110c5565b820191905f5260205f20905b8154815290600101906020018083116110a857829003601f168201915b505050505081526020016003820154815260200160048201548152602001600582015481526020016006820180546110fc9061213a565b80601f01602080910402602001604051908101604052809291908181526020018280546111289061213a565b80156111735780601f1061114a57610100808354040283529160200191611173565b820191905f5260205f20905b81548152906001019060200180831161115657829003601f168201915b5050505050815260200160078201805461118c9061213a565b80601f01602080910402602001604051908101604052809291908181526020018280546111b89061213a565b80156112035780601f106111da57610100808354040283529160200191611203565b820191905f5260205f20905b8154815290600101906020018083116111e657829003601f168201915b505050918352505060088201546020820152600982015460409091019060ff16600581111561123457611234611e9c565b600581111561124557611245611e9c565b8152602001600a8201548152602001600b8201548152602001600c820154815250508282815181106112795761127961229c565b6020908102919091010152600101610fdb565b50919050565b61129a611bf4565b5f818152600160208190526040909120908101546001600160a01b03166112d35760405162461bcd60e51b81526004016103a3906122dc565b5f600982015460ff1660058111156112ed576112ed611e9c565b146113305760405162461bcd60e51b81526020600482015260136024820152724c6f616e206973206e6f742070656e64696e6760681b60448201526064016103a3565b60098101805460ff1916600117905560405182907f27c83ace41675286abb2789c00edb057ff5dfa6acc032cc11dfbb1a3d16f38f1905f90a25050565b600160208190525f91825260409091208054918101546002820180546001600160a01b03909216929161139f9061213a565b80601f01602080910402602001604051908101604052809291908181526020018280546113cb9061213a565b80156114165780601f106113ed57610100808354040283529160200191611416565b820191905f5260205f20905b8154815290600101906020018083116113f957829003601f168201915b50505050509080600301549080600401549080600501549080600601805461143d9061213a565b80601f01602080910402602001604051908101604052809291908181526020018280546114699061213a565b80156114b45780601f1061148b576101008083540402835291602001916114b4565b820191905f5260205f20905b81548152906001019060200180831161149757829003601f168201915b5050505050908060070180546114c99061213a565b80601f01602080910402602001604051908101604052809291908181526020018280546114f59061213a565b80156115405780601f1061151757610100808354040283529160200191611540565b820191905f5260205f20905b81548152906001019060200180831161152357829003601f168201915b50505060088401546009850154600a860154600b870154600c909701549596929560ff909216945092508d565b5f818152600160205260408120600581015460048201546008830154849263bbf81e0092909161159d9190612309565b6115a79190612309565b6115b19190612326565b90508082600801546115c39190612345565b949350505050565b6115d3611c20565b5f818152600160208190526040909120908101546001600160a01b031661160c5760405162461bcd60e51b81526004016103a3906122dc565b6001600982015460ff16600581111561162757611627611e9c565b146116745760405162461bcd60e51b815260206004820181905260248201527f4c6f616e206973206e6f7420617070726f76656420666f722066756e64696e6760448201526064016103a3565b5f34116116d15760405162461bcd60e51b815260206004820152602560248201527f46756e64696e6720616d6f756e74206d75737420626520677265617465722074604482015264068616e20360dc1b60648201526084016103a3565b80600301543482600801546116e69190612345565b111561172a5760405162461bcd60e51b8152602060048201526013602482015272115e18d959591cc81b1bd85b88185b5bdd5b9d606a1b60448201526064016103a3565b34816008015f82825461173d9190612345565b909155505060038101546008820154106117675760098101805460ff1916600217905542600b8201555b604051348152339083907fc9ec7789962b9f329b37b7c2abcaa16a718d7203dc72064e1fde1b34a552b05a9060200160405180910390a350610a3660015f8051602061235983398151915255565b6001600160a01b0381165f90815260026020526040812080546060929067ffffffffffffffff8111156117ea576117ea611d34565b60405190808252806020026020018201604052801561182357816020015b611810611cb9565b8152602001906001900390816118085790505b5090505f5b8254811015611ad75760015f8483815481106118465761184661229c565b5f9182526020808320909101548352828101939093526040918201902081516101a0810183528154815260018201546001600160a01b03169381019390935260028101805491928401916118999061213a565b80601f01602080910402602001604051908101604052809291908181526020018280546118c59061213a565b80156119105780601f106118e757610100808354040283529160200191611910565b820191905f5260205f20905b8154815290600101906020018083116118f357829003601f168201915b505050505081526020016003820154815260200160048201548152602001600582015481526020016006820180546119479061213a565b80601f01602080910402602001604051908101604052809291908181526020018280546119739061213a565b80156119be5780601f10611995576101008083540402835291602001916119be565b820191905f5260205f20905b8154815290600101906020018083116119a157829003601f168201915b505050505081526020016007820180546119d79061213a565b80601f0160208091040260200160405190810160405280929190818152602001828054611a039061213a565b8015611a4e5780601f10611a2557610100808354040283529160200191611a4e565b820191905f5260205f20905b815481529060010190602001808311611a3157829003601f168201915b505050918352505060088201546020820152600982015460409091019060ff166005811115611a7f57611a7f611e9c565b6005811115611a9057611a90611e9c565b8152602001600a8201548152602001600b8201548152602001600c82015481525050828281518110611ac457611ac461229c565b6020908102919091010152600101611828565b509392505050565b611ae7611bf4565b6001600160a01b038116611b1057604051631e4fbdf760e01b81525f60048201526024016103a3565b610a3681611c3b565b611b21611bf4565b5f818152600160208190526040909120908101546001600160a01b0316611b5a5760405162461bcd60e51b81526004016103a3906122dc565b6002600982015460ff166005811115611b7557611b75611e9c565b14611bb75760405162461bcd60e51b8152602060048201526012602482015271131bd85b881a5cc81b9bdd08199d5b99195960721b60448201526064016103a3565b60098101805460ff1916600417905560405182907f62bea93887ccc55bd6a7c447d71f21a125bcf688ab5e5d7c4604936bb3e8bbfe905f90a25050565b5f546001600160a01b03163314610c055760405163118cdaa760e01b81523360048201526024016103a3565b611c28611c8a565b60025f8051602061235983398151915255565b5f80546001600160a01b038381166001600160a01b0319831681178455604051919092169283917f8be0079c531659141344cd1fd0a4f28419497f9722a3daafe3b4186f6b6457e09190a35050565b5f8051602061235983398151915254600203610c0557604051633ee5aeb560e01b815260040160405180910390fd5b604051806101a001604052805f80191681526020015f6001600160a01b03168152602001606081526020015f81526020015f81526020015f815260200160608152602001606081526020015f81526020015f6005811115611d1c57611d1c611e9c565b81526020015f81526020015f81526020015f81525090565b634e487b7160e01b5f52604160045260245ffd5b5f82601f830112611d57575f80fd5b813567ffffffffffffffff80821115611d7257611d72611d34565b604051601f8301601f19908116603f01168101908282118183101715611d9a57611d9a611d34565b81604052838152866020858801011115611db2575f80fd5b836020870160208301375f602085830101528094505050505092915050565b5f805f805f8060c08789031215611de6575f80fd5b863567ffffffffffffffff80821115611dfd575f80fd5b611e098a838b01611d48565b97506020890135965060408901359550606089013594506080890135915080821115611e33575f80fd5b611e3f8a838b01611d48565b935060a0890135915080821115611e54575f80fd5b50611e6189828a01611d48565b9150509295509295509295565b5f81518084528060208401602086015e5f602082860101526020601f19601f83011685010191505092915050565b634e487b7160e01b5f52602160045260245ffd5b60068110611ecc57634e487b7160e01b5f52602160045260245ffd5b9052565b5f6101a0825184526020830151611ef260208601826001600160a01b03169052565b506040830151816040860152611f0a82860182611e6e565b915050606083015160608501526080830151608085015260a083015160a085015260c083015184820360c0860152611f428282611e6e565b91505060e083015184820360e0860152611f5c8282611e6e565b91505061010080840151818601525061012080840151611f7e82870182611eb0565b5050610140838101519085015261016080840151908501526101809283015192909301919091525090565b5f60208083016020845280855180835260408601915060408160051b8701019250602087015f5b82811015611ffe57603f19888603018452611fec858351611ed0565b94509285019290850190600101611fd0565b5092979650505050505050565b5f6020828403121561201b575f80fd5b5035919050565b602081525f6120346020830184611ed0565b9392505050565b80356001600160a01b0381168114612051575f80fd5b919050565b5f8060408385031215612067575f80fd5b6120708361203b565b946020939093013593505050565b8d81526001600160a01b038d1660208201526101a0604082018190525f906120a88382018f611e6e565b90508c60608401528b60808401528a60a084015282810360c08401526120ce818b611e6e565b905082810360e08401526120e2818a611e6e565b915050866101008301526120fa610120830187611eb0565b8461014083015283610160830152826101808301529e9d5050505050505050505050505050565b5f60208284031215612131575f80fd5b6120348261203b565b600181811c9082168061214e57607f821691505b60208210810361128c57634e487b7160e01b5f52602260045260245ffd5b601f8211156121b357805f5260205f20601f840160051c810160208510156121915750805b601f840160051c820191505b818110156121b0575f815560010161219d565b50505b505050565b815167ffffffffffffffff8111156121d2576121d2611d34565b6121e6816121e0845461213a565b8461216c565b602080601f831160018114612219575f84156122025750858301515b5f19600386901b1c1916600185901b178555612270565b5f85815260208120601f198616915b8281101561224757888601518255948401946001909101908401612228565b508582101561226457878501515f19600388901b60f8161c191681555b505060018460011b0185555b505050505050565b606081525f61228a6060830186611e6e565b60208301949094525060400152919050565b634e487b7160e01b5f52603260045260245ffd5b634e487b7160e01b5f52601160045260245ffd5b5f600182016122d5576122d56122b0565b5060010190565b602080825260139082015272131bd85b88191bd95cc81b9bdd08195e1a5cdd606a1b604082015260600190565b8082028115828204841417612320576123206122b0565b92915050565b5f8261234057634e487b7160e01b5f52601260045260245ffd5b500490565b80820180821115612320576123206122b056fe9b779b17422d0df92223018b32b4d1fa46e071723d6817e2486d003becc55f00a2646970667358221220e939ab61f99732dde4f82b3067a8a76a56b1ed2ef50cbe028a774f935354655264736f6c63430008190033",
  "linkReferences": {},
  "deployedLinkReferences": {}
}