{
  "_format": "hh-sol-artifact-1",
  "contractName": "LiteracyBadge",
  "sourceName": "src/LiteracyBadge.sol",
  "abi": [
    {
      "inputs": [],
      "stateMutability": "nonpayable",
      "type": "constructor"
    },
    {
      "inputs": [
        {
          "internalType": "address",
          "name": "sender",
          "type": "address"
        },
        {
          "internalType": "uint256",
          "name": "tokenId",
          "type": "uint256"
        },
        {
          "internalType": "address",
          "name": "owner",
          "type": "address"
        }
      ],
      "name": "ERC721IncorrectOwner",
      "type": "error"
    },
    {
      "inputs": [
        {
          "internalType": "address",
          "name": "operator",
          "type": "address"
        },
        {
          "internalType": "uint256",
          "name": "tokenId",
          "type": "uint256"
        }
      ],
      "name": "ERC721InsufficientApproval",
      "type": "error"
    },
    {
      "inputs": [
        {
          "internalType": "address",
          "name": "approver",
          "type": "address"
        }
      ],
      "name": "ERC721InvalidApprover",
      "type": "error"
    },
    {
      "inputs": [
        {
          "internalType": "address",
          "name": "operator",
          "type": "address"
        }
      ],
      "name": "ERC721InvalidOperator",
      "type": "error"
    },
    {
      "inputs": [
        {
          "internalType": "address",
          "name": "owner",
          "type": "address"
        }
      ],
      "name": "ERC721InvalidOwner",
      "type": "error"
    },
    {
      "inputs": [
        {
          "internalType": "address",
          "name": "receiver",
          "type": "address"
        }
      ],
      "name": "ERC721InvalidReceiver",
      "type": "error"
    },
    {
      "inputs": [
        {
          "internalType": "address",
          "name": "sender",
          "type": "address"
        }
      ],
      "name": "ERC721InvalidSender",
      "type": "error"
    },
    {
      "inputs": [
        {
          "internalType": "uint256",
          "name": "tokenId",
          "type": "uint256"
        }
      ],
      "name": "ERC721NonexistentToken",
      "type": "error"
    },
    {
      "inputs": [
        {
          "internalType": "address",
          "name": "owner",
          "type": "address"
        }
      ],
      "name": "OwnableInvalidOwner",
      "type": "error"
    },
    {
      "inputs": [
        {
          "internalType": "address",
          "name": "account",
          "type": "address"
        }
      ],
      "name": "OwnableUnauthorizedAccount",
      "type": "error"
    },
    {
      "inputs": [],
      "name": "ReentrancyGuardReentrantCall",
      "type": "error"
    },
    {
      "anonymous": false,
      "inputs": [
        {
          "indexed": true,
          "internalType": "address",
          "name": "owner",
          "type": "address"
        },
        {
          "indexed": true,
          "internalType": "address",
          "name": "approved",
          "type": "address"
        },
        {
          "indexed": true,
          "internalType": "uint256",
          "name": "tokenId",
          "type": "uint256"
        }
      ],
      "name": "Approval",
      "type": "event"
    },
    {
      "anonymous": false,
      "inputs": [
        {
          "indexed": true,
          "internalType": "address",
          "name": "owner",
          "type": "address"
        },
        {
          "indexed": true,
          "internalType": "address",
          "name": "operator",
          "type": "address"
        },
        {
          "indexed": false,
          "internalType": "bool",
          "name": "approved",
          "type": "bool"
        }
      ],
      "name": "ApprovalForAll",
      "type": "event"
    },
    {
      "anonymous": false,
      "inputs": [
        {
          "indexed": true,
          "internalType": "uint256",
          "name": "tokenId",
          "type": "uint256"
        },
        {
          "indexed": true,
          "internalType": "address",
          "name": "recipient",
          "type": "address"
        },
        {
          "indexed": false,
          "internalType": "string",
          "name": "moduleId",
          "type": "string"
        },
        {
          "indexed": false,
          "internalType": "enum LiteracyBadge.BadgeTier",
          "name": "tier",
          "type": "uint8"
        },
        {
          "indexed": false,
          "internalType": "uint256",
          "name": "score",
          "type": "uint256"
        }
      ],
      "name": "BadgeMinted",
      "type": "event"
    },
    {
      "anonymous": false,
      "inputs": [
        {
          "indexed": true,
          "internalType": "uint256",
          "name": "tokenId",
          "type": "uint256"
        },
        {
          "indexed": false,
          "internalType": "enum LiteracyBadge.BadgeTier",
          "name": "oldTier",
          "type": "uint8"
        },
        {
          "indexed": false,
          "internalType": "enum LiteracyBadge.BadgeTier",
          "name": "newTier",
          "type": "uint8"
        }
      ],
      "name": "BadgeTierUpgraded",
      "type": "event"
    },
    {
      "anonymous": false,
      "inputs": [
        {
          "indexed": false,
          "internalType": "uint256",
          "name": "_fromTokenId",
          "type": "uint256"
        },
        {
          "indexed": false,
          "internalType": "uint256",
          "name": "_toTokenId",
          "type": "uint256"
        }
      ],
      "name": "BatchMetadataUpdate",
      "type": "event"
    },
    {
      "anonymous": false,
      "inputs": [
        {
          "indexed": false,
          "internalType": "uint256",
          "name": "_tokenId",
          "type": "uint256"
        }
      ],
      "name": "MetadataUpdate",
      "type": "event"
    },
    {
      "anonymous": false,
      "inputs": [
        {
          "indexed": true,
          "internalType": "address",
          "name": "previousOwner",
          "type": "address"
        },
        {
          "indexed": true,
          "internalType": "address",
          "name": "newOwner",
          "type": "address"
        }
      ],
      "name": "OwnershipTransferred",
      "type": "event"
    },
    {
      "anonymous": false,
      "inputs": [
        {
          "indexed": true,
          "internalType": "address",
          "name": "from",
          "type": "address"
        },
        {
          "indexed": true,
          "internalType": "address",
          "name": "to",
          "type": "address"
        },
        {
          "indexed": true,
          "internalType": "uint256",
          "name": "tokenId",
          "type": "uint256"
        }
      ],
      "name": "Transfer",
      "type": "event"
    },
    {
      "inputs": [
        {
          "internalType": "address",
          "name": "to",
          "type": "address"
        },
        {
          "internalType": "uint256",
          "name": "tokenId",
          "type": "uint256"
        }
      ],
      "name": "approve",
      "outputs": [],
      "stateMutability": "nonpayable",
      "type": "function"
    },
    {
      "inputs": [
        {
          "internalType": "uint256",
          "name": "",
          "type": "uint256"
        }
      ],
      "name": "badges",
      "outputs": [
        {
          "internalType": "address",
          "name": "recipient",
          "type": "address"
        },
        {
          "internalType": "string",
          "name": "moduleId",
          "type": "string"
        },
        {
          "internalType": "uint256",
          "name": "score",
          "type": "uint256"
        },
        {
          "internalType": "enum LiteracyBadge.BadgeTier",
          "name": "tier",
          "type": "uint8"
        },
        {
          "internalType": "uint256",
          "name": "mintedAt",
          "type": "uint256"
        }
      ],
      "stateMutability": "view",
      "type": "function"
    },
    {
      "inputs": [
        {
          "internalType": "address",
          "name": "owner",
          "type": "address"
        }
      ],
      "name": "balanceOf",
      "outputs": [
        {
          "internalType": "uint256",
          "name": "",
          "type": "uint256"
        }
      ],
      "stateMutability": "view",
      "type": "function"
    },
    {
      "inputs": [
        {
          "internalType": "address[]",
          "name": "recipients",
          "type": "address[]"
        },
        {
          "internalType": "string[]",
          "name": "moduleIds",
          "type": "string[]"
        },
        {
          "internalType": "uint256[]",
          "name": "scores",
          "type": "uint256[]"
        }
      ],
      "name": "batchMintBadges",
      "outputs": [],
      "stateMutability": "nonpayable",
      "type": "function"
    },
    {
      "inputs": [
        {
          "internalType": "uint256",
          "name": "tokenId",
          "type": "uint256"
        }
      ],
      "name": "getApproved",
      "outputs": [
        {
          "internalType": "address",
          "name": "",
          "type": "address"
        }
      ],
      "stateMutability": "view",
      "type": "function"
    },
    {
      "inputs": [
        {
          "internalType": "uint256",
          "name": "tokenId",
          "type": "uint256"
        }
      ],
      "name": "getBadgeDetails",
      "outputs": [
        {
          "components": [
            {
              "internalType": "address",
              "name": "recipient",
              "type": "address"
            },
            {
              "internalType": "string",
              "name": "moduleId",
              "type": "string"
            },
            {
              "internalType": "uint256",
              "name": "score",
              "type": "uint256"
            },
            {
              "internalType": "enum LiteracyBadge.BadgeTier",
              "name": "tier",
              "type": "uint8"
            },
            {
              "internalType": "uint256",
              "name": "mintedAt",
              "type": "uint256"
            }
          ],
          "internalType": "struct LiteracyBadge.Badge",
          "name": "",
          "type": "tuple"
        }
      ],
      "stateMutability": "view",
      "type": "function"
    },
    {
      "inputs": [
        {
          "internalType": "address",
          "name": "user",
          "type": "address"
        }
      ],
      "name": "getUserBadgeCount",
      "outputs": [
        {
          "internalType": "uint256",
          "name": "",
          "type": "uint256"
        }
      ],
      "stateMutability": "view",
      "type": "function"
    },
    {
      "inputs": [
        {
          "internalType": "address",
          "name": "user",
          "type": "address"
        }
      ],
      "name": "getUserBadges",
      "outputs": [
        {
          "internalType": "uint256[]",
          "name": "",
          "type": "uint256[]"
        }
      ],
      "stateMutability": "view",
      "type": "function"
    },
    {
      "inputs": [
        {
          "internalType": "address",
          "name": "user",
          "type": "address"
        }
      ],
      "name": "getUserTiers",
      "outputs": [
        {
          "internalType": "uint256[]",
          "name": "",
          "type": "uint256[]"
        }
      ],
      "stateMutability": "view",
      "type": "function"
    },
    {
      "inputs": [
        {
          "internalType": "address",
          "name": "user",
          "type": "address"
        },
        {
          "internalType": "string",
          "name": "moduleId",
          "type": "string"
        }
      ],
      "name": "hasCompleted",
      "outputs": [
        {
          "internalType": "bool",
          "name": "",
          "type": "bool"
        }
      ],
      "stateMutability": "view",
      "type": "function"
    },
    {
      "inputs": [
        {
          "internalType": "address",
          "name": "",
          "type": "address"
        },
        {
          "internalType": "string",
          "name": "",
          "type": "string"
        }
      ],
      "name": "hasCompletedModule",
      "outputs": [
        {
          "internalType": "bool",
          "name": "",
          "type": "bool"
        }
      ],
      "stateMutability": "view",
      "type": "function"
    },
    {
      "inputs": [
        {
          "internalType": "address",
          "name": "owner",
          "type": "address"
        },
        {
          "internalType": "address",
          "name": "operator",
          "type": "address"
        }
      ],
      "name": "isApprovedForAll",
      "outputs": [
        {
          "internalType": "bool",
          "name": "",
          "type": "bool"
        }
      ],
      "stateMutability": "view",
      "type": "function"
    },
    {
      "inputs": [
        {
          "internalType": "address",
          "name": "recipient",
          "type": "address"
        },
        {
          "internalType": "string",
          "name": "moduleId",
          "type": "string"
        },
        {
          "internalType": "uint256",
          "name": "score",
          "type": "uint256"
        }
      ],
      "name": "mintBadge",
      "outputs": [
        {
          "internalType": "uint256",
          "name": "",
          "type": "uint256"
        }
      ],
      "stateMutability": "nonpayable",
      "type": "function"
    },
    {
      "inputs": [],
      "name": "name",
      "outputs": [
        {
          "internalType": "string",
          "name": "",
          "type": "string"
        }
      ],
      "stateMutability": "view",
      "type": "function"
    },
    {
      "inputs": [],
      "name": "owner",
      "outputs": [
        {
          "internalType": "address",
          "name": "",
          "type": "address"
        }
      ],
      "stateMutability": "view",
      "type": "function"
    },
    {
      "inputs": [
        {
          "internalType": "uint256",
          "name": "tokenId",
          "type": "uint256"
        }
      ],
      "name": "ownerOf",
      "outputs": [
        {
          "internalType": "address",
          "name": "",
          "type": "address"
        }
      ],
      "stateMutability": "view",
      "type": "function"
    },
    {
      "inputs": [],
      "name": "renounceOwnership",
      "outputs": [],
      "stateMutability": "nonpayable",
      "type": "function"
    },
    {
      "inputs": [
        {
          "internalType": "address",
          "name": "from",
          "type": "address"
        },
        {
          "internalType": "address",
          "name": "to",
          "type": "address"
        },
        {
          "internalType": "uint256",
          "name": "tokenId",
          "type": "uint256"
        }
      ],
      "name": "safeTransferFrom",
      "outputs": [],
      "stateMutability": "nonpayable",
      "type": "function"
    },
    {
      "inputs": [
        {
          "internalType": "address",
          "name": "from",
          "type": "address"
        },
        {
          "internalType": "address",
          "name": "to",
          "type": "address"
        },
        {
          "internalType": "uint256",
          "name": "tokenId",
          "type": "uint256"
        },
        {
          "internalType": "bytes",
          "name": "data",
          "type": "bytes"
        }
      ],
      "name": "safeTransferFrom",
      "outputs": [],
      "stateMutability": "nonpayable",
      "type": "function"
    },
    {
      "inputs": [
        {
          "internalType": "address",
          "name": "operator",
          "type": "address"
        },
        {
          "internalType": "bool",
          "name": "approved",
          "type": "bool"
        }
      ],
      "name": "setApprovalForAll",
      "outputs": [],
      "stateMutability": "nonpayable",
      "type": "function"
    },
    {
      "inputs": [
        {
          "internalType": "bytes4",
          "name": "interfaceId",
          "type": "bytes4"
        }
      ],
      "name": "supportsInterface",
      "outputs": [
        {
          "internalType": "bool",
          "name": "",
          "type": "bool"
        }
      ],
      "stateMutability": "view",
      "type": "function"
    },
    {
      "inputs": [],
      "name": "symbol",
      "outputs": [
        {
          "internalType": "string",
          "name": "",
          "type": "string"
        }
      ],
      "stateMutability": "view",
      "type": "function"
    },
    {
      "inputs": [
        {
          "internalType": "uint256",
          "name": "tokenId",
          "type": "uint256"
        }
      ],
      "name": "tokenURI",
      "outputs": [
        {
          "internalType": "string",
          "name": "",
          "type": "string"
        }
      ],
      "stateMutability": "view",
      "type": "function"
    },
    {
      "inputs": [
        {
          "internalType": "address",
          "name": "from",
          "type": "address"
        },
        {
          "internalType": "address",
          "name": "to",
          "type": "address"
        },
        {
          "internalType": "uint256",
          "name": "tokenId",
          "type": "uint256"
        }
      ],
      "name": "transferFrom",
      "outputs": [],
      "stateMutability": "nonpayable",
      "type": "function"
    },
    {
      "inputs": [
        {
          "internalType": "address",
          "name": "newOwner",
          "type": "address"
        }
      ],
      "name": "transferOwnership",
      "outputs": [],
      "stateMutability": "nonpayable",
      "type": "function"
    },
    {
      "inputs": [
        {
          "internalType": "uint256",
          "name": "tokenId",
          "type": "uint256"
        },
        {
          "internalType": "uint256",
          "name": "newScore",
          "type": "uint256"
        }
      ],
      "name": "upgradeBadgeTier",
      "outputs": [],
      "stateMutability": "nonpayable",
      "type": "function"
    },
    {
      "inputs": [
        {
          "internalType": "address",
          "name": "",
          "type": "address"
        },
        {
          "internalType": "uint256",
          "name": "",
          "type": "uint256"
        }
      ],
      "name": "userBadges",
      "outputs": [
        {
          "internalType": "uint256",
          "name": "",
          "type": "uint256"
        }
      ],
      "stateMutability": "view",
      "type": "function"
    }
  ],
  "bytecode": "0x608060405234801561000f575f80fd5b50336040518060400160405280601b81526020017f456d706f776572436861696e204c6974657261637920426164676500000000008152506040518060400160405280600481526020016322a1a62160e11b815250815f908161007291906101cb565b50600161007f82826101cb565b5050506001600160a01b0381166100af57604051631e4fbdf760e01b81525f600482015260240160405180910390fd5b6100b8816100e2565b5060017f9b779b17422d0df92223018b32b4d1fa46e071723d6817e2486d003becc55f005561028a565b600780546001600160a01b038381166001600160a01b0319831681179093556040519116919082907f8be0079c531659141344cd1fd0a4f28419497f9722a3daafe3b4186f6b6457e0905f90a35050565b634e487b7160e01b5f52604160045260245ffd5b600181811c9082168061015b57607f821691505b60208210810361017957634e487b7160e01b5f52602260045260245ffd5b50919050565b601f8211156101c657805f5260205f20601f840160051c810160208510156101a45750805b601f840160051c820191505b818110156101c3575f81556001016101b0565b50505b505050565b81516001600160401b038111156101e4576101e4610133565b6101f8816101f28454610147565b8461017f565b602080601f83116001811461022b575f84156102145750858301515b5f19600386901b1c1916600185901b178555610282565b5f85815260208120601f198616915b828110156102595788860151825594840194600190910190840161023a565b508582101561027657878501515f19600388901b60f8161c191681555b505060018460011b0185555b505050505050565b6127d7806102975f395ff3fe608060405234801561000f575f80fd5b50600436106101a1575f3560e01c806369679575116100f357806398e36d8b11610093578063c87b56dd1161006e578063c87b56dd146103ec578063df91cc23146103ff578063e985e9c514610412578063f2fde38b14610425575f80fd5b806398e36d8b146103a2578063a22cb465146103c6578063b88d4fde146103d9575f80fd5b806382023931116100ce5780638202393114610363578063824a5a2f146103765780638da5cb5b1461038957806395d89b411461039a575f80fd5b8063696795751461031257806370a0823114610348578063715018a61461035b575f80fd5b806337c245fe1161015e57806342ed9fac1161013957806342ed9fac146102c65780635248b038146102d957806356b2c496146102ec5780636352211e146102ff575f80fd5b806337c245fe146102555780633d18dc6f1461027557806342842e0e146102b3575f80fd5b806301ffc9a7146101a557806306fdde03146101cd578063081812fc146101e2578063095ea7b31461020d57806323b872dd146102225780632950c4bd14610235575b5f80fd5b6101b86101b3366004611d93565b610438565b60405190151581526020015b60405180910390f35b6101d5610448565b6040516101c49190611ddc565b6101f56101f0366004611dee565b6104d7565b6040516001600160a01b0390911681526020016101c4565b61022061021b366004611e1b565b6104fe565b005b610220610230366004611e43565b61050d565b610248610243366004611dee565b61059b565b6040516101c49190611eb0565b610268610263366004611f10565b610703565b6040516101c49190611f29565b6101b8610283366004612011565b600b60209081525f9283526040909220815180830184018051928152908401929093019190912091525460ff1681565b6102206102c1366004611e43565b61076c565b6102206102d43660046120a4565b61078b565b6102206102e7366004612137565b6108c0565b6101b86102fa366004612011565b610ac9565b6101f561030d366004611dee565b610b09565b61033a610320366004611f10565b6001600160a01b03165f908152600a602052604090205490565b6040519081526020016101c4565b61033a610356366004611f10565b610b13565b610220610b58565b610268610371366004611f10565b610b6b565b61033a610384366004612157565b610c93565b6007546001600160a01b03166101f5565b6101d5610dee565b6103b56103b0366004611dee565b610dfd565b6040516101c49594939291906121aa565b6102206103d43660046121f2565b610ec1565b6102206103e736600461222b565b610ecc565b6101d56103fa366004611dee565b610ee4565b61033a61040d366004611e1b565b610eef565b6101b86104203660046122a2565b610f1a565b610220610433366004611f10565b610f47565b5f61044282610f84565b92915050565b60605f8054610456906122d3565b80601f0160208091040260200160405190810160405280929190818152602001828054610482906122d3565b80156104cd5780601f106104a4576101008083540402835291602001916104cd565b820191905f5260205f20905b8154815290600101906020018083116104b057829003601f168201915b5050505050905090565b5f6104e182610fa8565b505f828152600460205260409020546001600160a01b0316610442565b610509828233610fe0565b5050565b6001600160a01b03821661053b57604051633250574960e11b81525f60048201526024015b60405180910390fd5b5f610547838333610fed565b9050836001600160a01b0316816001600160a01b031614610595576040516364283d7b60e01b81526001600160a01b0380861660048301526024820184905282166044820152606401610532565b50505050565b6105a3611d39565b5f6105ad83610b09565b6001600160a01b0316036105fa5760405162461bcd60e51b8152602060048201526014602482015273151bdad95b88191bd95cc81b9bdd08195e1a5cdd60621b6044820152606401610532565b5f82815260096020908152604091829020825160a0810190935280546001600160a01b031683526001810180549192840191610635906122d3565b80601f0160208091040260200160405190810160405280929190818152602001828054610661906122d3565b80156106ac5780601f10610683576101008083540402835291602001916106ac565b820191905f5260205f20905b81548152906001019060200180831161068f57829003601f168201915b50505091835250506002828101546020830152600383015460409092019160ff16908111156106dd576106dd611e7c565b60028111156106ee576106ee611e7c565b81526020016004820154815250509050919050565b6001600160a01b0381165f908152600a602090815260409182902080548351818402810184019094528084526060939283018282801561076057602002820191905f5260205f20905b81548152602001906001019080831161074c575b50505050509050919050565b61078683838360405180602001604052805f815250610ecc565b505050565b6107936110df565b61079b61110c565b84831480156107a957508481145b6107ed5760405162461bcd60e51b8152602060048201526015602482015274082e4e4c2f240d8cadccee8d040dad2e6dac2e8c6d605b1b6044820152606401610532565b5f5b858110156108a15761089987878381811061080c5761080c61230b565b90506020020160208101906108219190611f10565b8686848181106108335761083361230b565b9050602002810190610845919061231f565b8080601f0160208091040260200160405190810160405280939291908181526020018383808284375f9201919091525088925087915086905081811061088d5761088d61230b565b90506020020135611127565b6001016107ef565b506108b860015f8051602061278283398151915255565b505050505050565b6108c86110df565b5f6108d283610b09565b6001600160a01b03160361091f5760405162461bcd60e51b8152602060048201526014602482015273151bdad95b88191bd95cc81b9bdd08195e1a5cdd60621b6044820152606401610532565b5f610929826112eb565b5f84815260096020526040902060038101549192509060ff16600281111561095357610953611e7c565b82600281111561096557610965611e7c565b116109b25760405162461bcd60e51b815260206004820152601760248201527f4e65772074696572206d757374206265206869676865720000000000000000006044820152606401610532565b60038101805460ff811691849160ff191660018360028111156109d7576109d7611e7c565b02179055508382600201819055505f610a7b8360010180546109f8906122d3565b80601f0160208091040260200160405190810160405280929190818152602001828054610a24906122d3565b8015610a6f5780601f10610a4657610100808354040283529160200191610a6f565b820191905f5260205f20905b815481529060010190602001808311610a5257829003601f168201915b50505050508587611318565b9050610a8786826113ea565b857f991f1f8a7286d197f99d01279a6ed773ef5539caabd7931b9869a3bd2b16f8258386604051610ab9929190612362565b60405180910390a2505050505050565b6001600160a01b0382165f908152600b60205260408082209051610aee908490612394565b9081526040519081900360200190205460ff16905092915050565b5f61044282610fa8565b5f6001600160a01b038216610b3d576040516322718ad960e21b81525f6004820152602401610532565b506001600160a01b03165f9081526003602052604090205490565b610b606110df565b610b695f611439565b565b6001600160a01b0381165f908152600a60209081526040808320805482518185028101850190935280835260609493830182828015610bc757602002820191905f5260205f20905b815481526020019060010190808311610bb3575b505050505090505f815167ffffffffffffffff811115610be957610be9611f6c565b604051908082528060200260200182016040528015610c12578160200160208202803683370190505b5090505f5b8251811015610c8b5760095f848381518110610c3557610c3561230b565b60209081029190910181015182528101919091526040015f206003015460ff166002811115610c6657610c66611e7c565b828281518110610c7857610c7861230b565b6020908102919091010152600101610c17565b509392505050565b5f610c9c6110df565b610ca461110c565b6001600160a01b038416610cee5760405162461bcd60e51b8152602060048201526011602482015270125b9d985b1a59081c9958da5c1a595b9d607a1b6044820152606401610532565b6064821115610d2f5760405162461bcd60e51b815260206004820152600d60248201526c496e76616c69642073636f726560981b6044820152606401610532565b6001600160a01b0384165f908152600b6020526040908190209051610d55908590612394565b9081526040519081900360200190205460ff1615610db55760405162461bcd60e51b815260206004820152601860248201527f4d6f64756c6520616c726561647920636f6d706c6574656400000000000000006044820152606401610532565b610dc0848484611127565b6001600854610dcf91906123b3565b9050610de760015f8051602061278283398151915255565b9392505050565b606060018054610456906122d3565b60096020525f9081526040902080546001820180546001600160a01b039092169291610e28906122d3565b80601f0160208091040260200160405190810160405280929190818152602001828054610e54906122d3565b8015610e9f5780601f10610e7657610100808354040283529160200191610e9f565b820191905f5260205f20905b815481529060010190602001808311610e8257829003601f168201915b50505050600283015460038401546004909401549293909260ff909116915085565b61050933838361148a565b610ed784848461050d565b6105953385858585611551565b606061044282611677565b600a602052815f5260405f208181548110610f08575f80fd5b905f5260205f20015f91509150505481565b6001600160a01b039182165f90815260056020908152604080832093909416825291909152205460ff1690565b610f4f6110df565b6001600160a01b038116610f7857604051631e4fbdf760e01b81525f6004820152602401610532565b610f8181611439565b50565b5f6001600160e01b03198216632483248360e11b14806104425750610442826116f8565b5f818152600260205260408120546001600160a01b03168061044257604051637e27328960e01b815260048101849052602401610532565b6107868383836001611747565b5f828152600260205260408120546001600160a01b03908116908316156110195761101981848661184b565b6001600160a01b03811615611053576110345f855f80611747565b6001600160a01b0381165f90815260036020526040902080545f190190555b6001600160a01b03851615611081576001600160a01b0385165f908152600360205260409020805460010190555b5f8481526002602052604080822080546001600160a01b0319166001600160a01b0389811691821790925591518793918516917fddf252ad1be2c89b69c2b068fc378daa952ba7f163c4a11628f55a4df523b3ef91a4949350505050565b6007546001600160a01b03163314610b695760405163118cdaa760e01b8152336004820152602401610532565b6111146118af565b60025f8051602061278283398151915255565b5f611131826112eb565b600880549192505f919082611145836123c6565b91905055905061115585826118de565b5f611161858486611318565b905061116d82826113ea565b5f6040518060a00160405280886001600160a01b031681526020018781526020018681526020018560028111156111a6576111a6611e7c565b8152426020918201525f8581526009825260409020825181546001600160a01b0319166001600160a01b0390911617815590820151919250829160018201906111ef9082612422565b50604082015181600201556060820151816003015f6101000a81548160ff0219169083600281111561122357611223611e7c565b0217905550608091909101516004909101556001600160a01b0387165f818152600a6020908152604080832080546001818101835591855283852001889055938352600b90915290819020905161127b908990612394565b908152604051908190036020018120805492151560ff19909316929092179091556001600160a01b0388169084907f5ca04f1490bb749d271ec1e9a87c673acf2dd14e322f234c8e70abcce8f084c1906112da908a9089908b906124de565b60405180910390a350505050505050565b5f605a82106112fc57506002919050565b6046821061130c57506001919050565b505f919050565b919050565b606080600284600281111561132f5761132f611e7c565b03611355575060408051808201909152600481526311dbdb1960e21b60208201526113b0565b600184600281111561136957611369611e7c565b03611391575060408051808201909152600681526529b4b63b32b960d11b60208201526113b0565b5060408051808201909152600681526542726f6e7a6560d01b60208201525b8085866113bc866118f7565b846040516020016113d195949392919061250d565b6040516020818303038152906040529150509392505050565b5f8281526006602052604090206114018282612422565b506040518281527ff8e1a15aba9398e019f0b49df1a4fde98ee17ae345cb5f6b5e2c27f5033e8ce79060200160405180910390a15050565b600780546001600160a01b038381166001600160a01b0319831681179093556040519116919082907f8be0079c531659141344cd1fd0a4f28419497f9722a3daafe3b4186f6b6457e0905f90a35050565b6001600160a01b0383166114b35760405163a9fbf51f60e01b81525f6004820152602401610532565b6001600160a01b0382166114e557604051630b61174360e31b81526001600160a01b0383166004820152602401610532565b6001600160a01b038381165f81815260056020908152604080832094871680845294825291829020805460ff191686151590811790915591519182527f17307eab39ab6107e8899845ad3d59bd9653f200f220920489ca2b5937696c31910160405180910390a3505050565b6001600160a01b0383163b1561167057604051630a85bd0160e11b81526001600160a01b0384169063150b7a02906115939088908890879087906004016126c9565b6020604051808303815f875af19250505080156115cd575060408051601f3d908101601f191682019092526115ca91810190612705565b60015b611634573d8080156115fa576040519150601f19603f3d011682016040523d82523d5f602084013e6115ff565b606091505b5080515f0361162c57604051633250574960e11b81526001600160a01b0385166004820152602401610532565b805160208201fd5b6001600160e01b03198116630a85bd0160e11b146108b857604051633250574960e11b81526001600160a01b0385166004820152602401610532565b5050505050565b606061168282610fa8565b505f61169860408051602081019091525f815290565b90505f6116a4846119f4565b905081515f036116b5579392505050565b8051156116e75781816040516020016116cf929190612720565b60405160208183030381529060405292505050919050565b6116f084611a89565b949350505050565b5f6001600160e01b031982166380ac58cd60e01b148061172857506001600160e01b03198216635b5e139f60e01b145b8061044257506301ffc9a760e01b6001600160e01b0319831614610442565b808061175b57506001600160a01b03821615155b1561181c575f61176a84610fa8565b90506001600160a01b038316158015906117965750826001600160a01b0316816001600160a01b031614155b80156117a957506117a78184610f1a565b155b156117d25760405163a9fbf51f60e01b81526001600160a01b0384166004820152602401610532565b811561181a5783856001600160a01b0316826001600160a01b03167f8c5be1e5ebec7d5bd14f71427d1e84f3dd0314c0f7b2291e5b200ac8c7c3b92560405160405180910390a45b505b50505f90815260046020526040902080546001600160a01b0319166001600160a01b0392909216919091179055565b611856838383611af9565b610786576001600160a01b03831661188457604051637e27328960e01b815260048101829052602401610532565b60405163177e802f60e01b81526001600160a01b038316600482015260248101829052604401610532565b5f8051602061278283398151915254600203610b6957604051633ee5aeb560e01b815260040160405180910390fd5b610509828260405180602001604052805f815250611b5a565b6060815f0361191d5750506040805180820190915260018152600360fc1b602082015290565b815f5b81156119465780611930816123c6565b915061193f9050600a83612748565b9150611920565b5f8167ffffffffffffffff81111561196057611960611f6c565b6040519080825280601f01601f19166020018201604052801561198a576020820181803683370190505b5090505b84156116f05761199f6001836123b3565b91506119ac600a8661275b565b6119b790603061276e565b60f81b8183815181106119cc576119cc61230b565b60200101906001600160f81b03191690815f1a9053506119ed600a86612748565b945061198e565b5f818152600660205260409020805460609190611a10906122d3565b80601f0160208091040260200160405190810160405280929190818152602001828054611a3c906122d3565b80156107605780601f10611a5e57610100808354040283529160200191610760565b820191905f5260205f20905b815481529060010190602001808311611a6a5750939695505050505050565b6060611a9482610fa8565b505f611aaa60408051602081019091525f815290565b90505f815111611ac85760405180602001604052805f815250610de7565b80611ad284611b71565b604051602001611ae3929190612720565b6040516020818303038152906040529392505050565b5f6001600160a01b038316158015906116f05750826001600160a01b0316846001600160a01b03161480611b325750611b328484610f1a565b806116f05750505f908152600460205260409020546001600160a01b03908116911614919050565b611b648383611c01565b610786335f858585611551565b60605f611b7d83611c62565b60010190505f8167ffffffffffffffff811115611b9c57611b9c611f6c565b6040519080825280601f01601f191660200182016040528015611bc6576020820181803683370190505b5090508181016020015b5f19016f181899199a1a9b1b9c1cb0b131b232b360811b600a86061a8153600a8504945084611bd057509392505050565b6001600160a01b038216611c2a57604051633250574960e11b81525f6004820152602401610532565b5f611c3683835f610fed565b90506001600160a01b03811615610786576040516339e3563760e11b81525f6004820152602401610532565b5f8072184f03e93ff9f4daa797ed6e38ed64bf6a1f0160401b8310611ca05772184f03e93ff9f4daa797ed6e38ed64bf6a1f0160401b830492506040015b6d04ee2d6d415b85acef81000000008310611ccc576d04ee2d6d415b85acef8100000000830492506020015b662386f26fc100008310611cea57662386f26fc10000830492506010015b6305f5e1008310611d02576305f5e100830492506008015b6127108310611d1657612710830492506004015b60648310611d28576064830492506002015b600a83106104425760010192915050565b6040518060a001604052805f6001600160a01b03168152602001606081526020015f81526020015f6002811115611d7257611d72611e7c565b81526020015f81525090565b6001600160e01b031981168114610f81575f80fd5b5f60208284031215611da3575f80fd5b8135610de781611d7e565b5f81518084528060208401602086015e5f602082860101526020601f19601f83011685010191505092915050565b602081525f610de76020830184611dae565b5f60208284031215611dfe575f80fd5b5035919050565b80356001600160a01b0381168114611313575f80fd5b5f8060408385031215611e2c575f80fd5b611e3583611e05565b946020939093013593505050565b5f805f60608486031215611e55575f80fd5b611e5e84611e05565b9250611e6c60208501611e05565b9150604084013590509250925092565b634e487b7160e01b5f52602160045260245ffd5b60038110611eac57634e487b7160e01b5f52602160045260245ffd5b9052565b602080825282516001600160a01b03168282015282015160a060408301525f90611edd60c0840182611dae565b9050604084015160608401526060840151611efb6080850182611e90565b50608084015160a08401528091505092915050565b5f60208284031215611f20575f80fd5b610de782611e05565b602080825282518282018190525f9190848201906040850190845b81811015611f6057835183529284019291840191600101611f44565b50909695505050505050565b634e487b7160e01b5f52604160045260245ffd5b5f67ffffffffffffffff80841115611f9a57611f9a611f6c565b604051601f8501601f19908116603f01168101908282118183101715611fc257611fc2611f6c565b81604052809350858152868686011115611fda575f80fd5b858560208301375f602087830101525050509392505050565b5f82601f830112612002575f80fd5b610de783833560208501611f80565b5f8060408385031215612022575f80fd5b61202b83611e05565b9150602083013567ffffffffffffffff811115612046575f80fd5b61205285828601611ff3565b9150509250929050565b5f8083601f84011261206c575f80fd5b50813567ffffffffffffffff811115612083575f80fd5b6020830191508360208260051b850101111561209d575f80fd5b9250929050565b5f805f805f80606087890312156120b9575f80fd5b863567ffffffffffffffff808211156120d0575f80fd5b6120dc8a838b0161205c565b909850965060208901359150808211156120f4575f80fd5b6121008a838b0161205c565b90965094506040890135915080821115612118575f80fd5b5061212589828a0161205c565b979a9699509497509295939492505050565b5f8060408385031215612148575f80fd5b50508035926020909101359150565b5f805f60608486031215612169575f80fd5b61217284611e05565b9250602084013567ffffffffffffffff81111561218d575f80fd5b61219986828701611ff3565b925050604084013590509250925092565b6001600160a01b038616815260a0602082018190525f906121cd90830187611dae565b90508460408301526121e26060830185611e90565b8260808301529695505050505050565b5f8060408385031215612203575f80fd5b61220c83611e05565b915060208301358015158114612220575f80fd5b809150509250929050565b5f805f806080858703121561223e575f80fd5b61224785611e05565b935061225560208601611e05565b925060408501359150606085013567ffffffffffffffff811115612277575f80fd5b8501601f81018713612287575f80fd5b61229687823560208401611f80565b91505092959194509250565b5f80604083850312156122b3575f80fd5b6122bc83611e05565b91506122ca60208401611e05565b90509250929050565b600181811c908216806122e757607f821691505b60208210810361230557634e487b7160e01b5f52602260045260245ffd5b50919050565b634e487b7160e01b5f52603260045260245ffd5b5f808335601e19843603018112612334575f80fd5b83018035915067ffffffffffffffff82111561234e575f80fd5b60200191503681900382131561209d575f80fd5b604081016123708285611e90565b610de76020830184611e90565b5f81518060208401855e5f93019283525090919050565b5f610de7828461237d565b634e487b7160e01b5f52601160045260245ffd5b818103818111156104425761044261239f565b5f600182016123d7576123d761239f565b5060010190565b601f82111561078657805f5260205f20601f840160051c810160208510156124035750805b601f840160051c820191505b81811015611670575f815560010161240f565b815167ffffffffffffffff81111561243c5761243c611f6c565b6124508161244a84546122d3565b846123de565b602080601f831160018114612483575f841561246c5750858301515b5f19600386901b1c1916600185901b1785556108b8565b5f85815260208120601f198616915b828110156124b157888601518255948401946001909101908401612492565b50858210156124ce57878501515f19600388901b60f8161c191681555b5050505050600190811b01905550565b606081525f6124f06060830186611dae565b90506124ff6020830185611e90565b826040830152949350505050565b7f646174613a6170706c69636174696f6e2f6a736f6e2c7b0000000000000000008152740113730b6b2911d1122b6b837bbb2b921b430b4b71605d1b60178201525f61255c602c83018861237d565b670810985919d9488b60c21b81527f226465736372697074696f6e223a2246696e616e6369616c204c69746572616360088201527f7920426164676520666f7220636f6d706c6574696e67206d6f64756c653a200060288201526125c3604782018861237d565b61088b60f21b81526d2261747472696275746573223a5b60901b60028201527f7b2274726169745f74797065223a224d6f64756c65222c2276616c7565223a2260108201529050612617603082018761237d565b62089f4b60ea1b81527f7b2274726169745f74797065223a2253636f7265222c2276616c7565223a0000600382015290506126bd6126af6126a161269b612672612664602187018b61237d565b611f4b60f21b815260020190565b7f7b2274726169745f74797065223a2254696572222c2276616c7565223a2200008152601e0190565b8761237d565b61227d60f01b815260020190565b615d7d60f01b815260020190565b98975050505050505050565b6001600160a01b03858116825284166020820152604081018390526080606082018190525f906126fb90830184611dae565b9695505050505050565b5f60208284031215612715575f80fd5b8151610de781611d7e565b5f6116f061272e838661237d565b8461237d565b634e487b7160e01b5f52601260045260245ffd5b5f8261275657612756612734565b500490565b5f8261276957612769612734565b500690565b808201808211156104425761044261239f56fe9b779b17422d0df92223018b32b4d1fa46e071723d6817e2486d003becc55f00a264697066735822122006c8d3c73f73de83ead12af7463253f24d687382f8e2fc8c1e398942984006b164736f6c63430008190033",
  "linkReferences": {},
  "deployedLinkReferences": {}
}