{"abi":[{"type":"constructor","inputs":[],"stateMutability":"nonpayable"},{"type":"receive","stateMutability":"payable"},{"type":"function","name":"allLoanIds","inputs":[{"name":"","type":"uint256","internalType":"uint256"}],"outputs":[{"name":"","type":"bytes32","internalType":"bytes32"}],"stateMutability":"view"},{"type":"function","name":"approveLoan","inputs":[{"name":"loanId","type":"bytes32","internalType":"bytes32"}],"outputs":[],"stateMutability":"nonpayable"},{"type":"function","name":"borrowerLoanIds","inputs":[{"name":"","type":"address","internalType":"address"},{"name":"","type":"uint256","internalType":"uint256"}],"outputs":[{"name":"","type":"bytes32","internalType":"bytes32"}],"stateMutability":"view"},{"type":"function","name":"calculateTotalRepayment","inputs":[{"name":"loanId","type":"bytes32","internalType":"bytes32"}],"outputs":[{"name":"","type":"uint256","internalType":"uint256"}],"stateMutability":"view"},{"type":"function","name":"createLoan","inputs":[{"name":"borrowerName","type":"string","internalType":"string"},{"name":"amount","type":"uint256","internalType":"uint256"},{"name":"interestRate","type":"uint256","internalType":"uint256"},{"name":"duration","type":"uint256","internalType":"uint256"},{"name":"purpose","type":"string","internalType":"string"},{"name":"description","type":"string","internalType":"string"}],"outputs":[{"name":"","type":"bytes32","internalType":"bytes32"}],"stateMutability":"nonpayable"},{"type":"function","name":"fundLoan","inputs":[{"name":"loanId","type":"bytes32","internalType":"bytes32"}],"outputs":[],"stateMutability":"payable"},{"type":"function","name":"getActiveLoans","inputs":[],"outputs":[{"name":"","type":"tuple[]","internalType":"struct Loan.LoanData[]","components":[{"name":"id","type":"bytes32","internalType":"bytes32"},{"name":"borrower","type":"address","internalType":"address"},{"name":"borrowerName","type":"string","internalType":"string"},{"name":"amount","type":"uint256","internalType":"uint256"},{"name":"interestRate","type":"uint256","internalType":"uint256"},{"name":"duration","type":"uint256","internalType":"uint256"},{"name":"purpose","type":"string","internalType":"string"},{"name":"description","type":"string","internalType":"string"},{"name":"fundedAmount","type":"uint256","internalType":"uint256"},{"name":"status","type":"uint8","internalType":"enum Loan.LoanStatus"},{"name":"createdAt","type":"uint256","internalType":"uint256"},{"name":"fundedAt","type":"uint256","internalType":"uint256"},{"name":"repaidAt","type":"uint256","internalType":"uint256"}]}],"stateMutability":"view"},{"type":"function","name":"getAllLoans","inputs":[],"outputs":[{"name":"","type":"tuple[]","internalType":"struct Loan.LoanData[]","components":[{"name":"id","type":"bytes32","internalType":"bytes32"},{"name":"borrower","type":"address","internalType":"address"},{"name":"borrowerName","type":"string","internalType":"string"},{"name":"amount","type":"uint256","internalType":"uint256"},{"name":"interestRate","type":"uint256","internalType":"uint256"},{"name":"duration","type":"uint256","internalType":"uint256"},{"name":"purpose","type":"string","internalType":"string"},{"name":"description","type":"string","internalType":"string"},{"name":"fundedAmount","type":"uint256","internalType":"uint256"},{"name":"status","type":"uint8","internalType":"enum Loan.LoanStatus"},{"name":"createdAt","type":"uint256","internalType":"uint256"},{"name":"fundedAt","type":"uint256","internalType":"uint256"},{"name":"repaidAt","type":"uint256","internalType":"uint256"}]}],"stateMutability":"view"},{"type":"function","name":"getBorrowerLoans","inputs":[{"name":"borrower","type":"address","internalType":"address"}],"outputs":[{"name":"","type":"tuple[]","internalType":"struct Loan.LoanData[]","components":[{"name":"id","type":"bytes32","internalType":"bytes32"},{"name":"borrower","type":"address","internalType":"address"},{"name":"borrowerName","type":"string","internalType":"string"},{"name":"amount","type":"uint256","internalType":"uint256"},{"name":"interestRate","type":"uint256","internalType":"uint256"},{"name":"duration","type":"uint256","internalType":"uint256"},{"name":"purpose","type":"string","internalType":"string"},{"name":"description","type":"string","internalType":"string"},{"name":"fundedAmount","type":"uint256","internalType":"uint256"},{"name":"status","type":"uint8","internalType":"enum Loan.LoanStatus"},{"name":"createdAt","type":"uint256","internalType":"uint256"},{"name":"fundedAt","type":"uint256","internalType":"uint256"},{"name":"repaidAt","type":"uint256","internalType":"uint256"}]}],"stateMutability":"view"},{"type":"function","name":"getLoan","inputs":[{"name":"loanId","type":"bytes32","internalType":"bytes32"}],"outputs":[{"name":"","type":"tuple","internalType":"struct Loan.LoanData","components":[{"name":"id","type":"bytes32","internalType":"bytes32"},{"name":"borrower","type":"address","internalType":"address"},{"name":"borrowerName","type":"string","internalType":"string"},{"name":"amount","type":"uint256","internalType":"uint256"},{"name":"interestRate","type":"uint256","internalType":"uint256"},{"name":"duration","type":"uint256","internalType":"uint256"},{"name":"purpose","type":"string","internalType":"string"},{"name":"description","type":"string","internalType":"string"},{"name":"fundedAmount","type":"uint256","internalType":"uint256"},{"name":"status","type":"uint8","internalType":"enum Loan.LoanStatus"},{"name":"createdAt","type":"uint256","internalType":"uint256"},{"name":"fundedAt","type":"uint256","internalType":"uint256"},{"name":"repaidAt","type":"uint256","internalType":"uint256"}]}],"stateMutability":"view"},{"type":"function","name":"loans","inputs":[{"name":"","type":"bytes32","internalType":"bytes32"}],"outputs":[{"name":"id","type":"bytes32","internalType":"bytes32"},{"name":"borrower","type":"address","internalType":"address"},{"name":"borrowerName","type":"string","internalType":"string"},{"name":"amount","type":"uint256","internalType":"uint256"},{"name":"interestRate","type":"uint256","internalType":"uint256"},{"name":"duration","type":"uint256","internalType":"uint256"},{"name":"purpose","type":"string","internalType":"string"},{"name":"description","type":"string","internalType":"string"},{"name":"fundedAmount","type":"uint256","internalType":"uint256"},{"name":"status","type":"uint8","internalType":"enum Loan.LoanStatus"},{"name":"createdAt","type":"uint256","internalType":"uint256"},{"name":"fundedAt","type":"uint256","internalType":"uint256"},{"name":"repaidAt","type":"uint256","internalType":"uint256"}],"stateMutability":"view"},{"type":"function","name":"markAsDefaulted","inputs":[{"name":"loanId","type":"bytes32","internalType":"bytes32"}],"outputs":[],"stateMutability":"nonpayable"},{"type":"function","name":"owner","inputs":[],"outputs":[{"name":"","type":"address","internalType":"address"}],"stateMutability":"view"},{"type":"function","name":"rejectLoan","inputs":[{"name":"loanId","type":"bytes32","internalType":"bytes32"}],"outputs":[],"stateMutability":"nonpayable"},{"type":"function","name":"renounceOwnership","inputs":[],"outputs":[],"stateMutability":"nonpayable"},{"type":"function","name":"repayLoan","inputs":[{"name":"loanId","type":"bytes32","internalType":"bytes32"}],"outputs":[],"stateMutability":"payable"},{"type":"function","name":"transferOwnership","inputs":[{"name":"newOwner","type":"address","internalType":"address"}],"outputs":[],"stateMutability":"nonpayable"},{"type":"function","name":"withdrawFunds","inputs":[],"outputs":[],"stateMutability":"nonpayable"},{"type":"event","name":"LoanApproved","inputs":[{"name":"id","type":"bytes32","indexed":true,"internalType":"bytes32"}],"anonymous":false},{"type":"event","name":"LoanCreated","inputs":[{"name":"id","type":"bytes32","indexed":true,"internalType":"bytes32"},{"name":"borrower","type":"address","indexed":true,"internalType":"address"},{"name":"borrowerName","type":"string","indexed":false,"internalType":"string"},{"name":"amount","type":"uint256","indexed":false,"internalType":"uint256"},{"name":"interestRate","type":"uint256","indexed":false,"internalType":"uint256"}],"anonymous":false},{"type":"event","name":"LoanDefaulted","inputs":[{"name":"id","type":"bytes32","indexed":true,"internalType":"bytes32"}],"anonymous":false},{"type":"event","name":"LoanFunded","inputs":[{"name":"id","type":"bytes32","indexed":true,"internalType":"bytes32"},{"name":"lender","type":"address","indexed":true,"internalType":"address"},{"name":"amount","type":"uint256","indexed":false,"internalType":"uint256"}],"anonymous":false},{"type":"event","name":"LoanRejected","inputs":[{"name":"id","type":"bytes32","indexed":true,"internalType":"bytes32"}],"anonymous":false},{"type":"event","name":"LoanRepaid","inputs":[{"name":"id","type":"bytes32","indexed":true,"internalType":"bytes32"},{"name":"amount","type":"uint256","indexed":false,"internalType":"uint256"}],"anonymous":false},{"type":"event","name":"OwnershipTransferred","inputs":[{"name":"previousOwner","type":"address","indexed":true,"internalType":"address"},{"name":"newOwner","type":"address","indexed":true,"internalType":"address"}],"anonymous":false},{"type":"error","name":"OwnableInvalidOwner","inputs":[{"name":"owner","type":"address","internalType":"address"}]},{"type":"error","name":"OwnableUnauthorizedAccount","inputs":[{"name":"account","type":"address","internalType":"address"}]},{"type":"error","name":"ReentrancyGuardReentrantCall","inputs":[]}],"bytecode":{"object":"0x60808060405234609a5733156085575f8054336001600160a01b03198216811783556040519290916001600160a01b0316907f8be0079c531659141344cd1fd0a4f28419497f9722a3daafe3b4186f6b6457e09080a360017f9b779b17422d0df92223018b32b4d1fa46e071723d6817e2486d003becc55f0055611838908161009f8239f35b631e4fbdf760e01b81525f6004820152602490fd5b5f80fdfe6080604052600436101561001a575b3615610018575f80fd5b005b5f3560e01c806309299c1514610b63578063121ed2a714610a3a578063222ff53d14610a0257806324600fc3146109b25780633f84210f1461084a578063715018a6146107f357806373f1869b146107685780638932f5f7146107215780638da5cb5b146106fa578063a56e11bc146106a3578063a5bfd16a1461062e578063bbfe6e95146105a3578063c4a908151461049b578063c961453814610475578063d017fa94146102ab578063eee8b7ff14610213578063f2fde38b146101895763f9bccab10361000e573461018557602036600319011261018557600435610100611795565b805f526001602052600960405f2061012560018060a01b036001830154161515611671565b01805460ff8116906006821015610171576101446002600493146116b3565b60ff19161790557f62bea93887ccc55bd6a7c447d71f21a125bcf688ab5e5d7c4604936bb3e8bbfe5f80a2005b634e487b7160e01b5f52602160045260245ffd5b5f80fd5b34610185576020366003190112610185576101a26113c4565b6101aa611795565b6001600160a01b039081169081156101fb575f54826bffffffffffffffffffffffff60a01b8216175f55167f8be0079c531659141344cd1fd0a4f28419497f9722a3daafe3b4186f6b6457e05f80a3005b604051631e4fbdf760e01b81525f6004820152602490fd5b3461018557602080600319360112610185576001600160a01b036102356113c4565b165f52600260205260405f209081549061024e82611550565b925f5b83811061026a57604051806102668782611303565b0390f35b80610277600192846113af565b90549060031b1c5f5281845261028f60405f206115b3565b610299828861159f565b526102a4818761159f565b5001610251565b602080600319360112610185576004356102c36117c0565b805f526001825260405f206102e560018060a01b036001830154161515611671565b60098101805460ff81166006811015610171576001036104325734156103df57600883018054906103163483611749565b9160038601548093116103a45761032e903490611749565b809155101561038c575b5050507fc9ec7789962b9f329b37b7c2abcaa16a718d7203dc72064e1fde1b34a552b05a604051923484523393a360017f9b779b17422d0df92223018b32b4d1fa46e071723d6817e2486d003becc55f0055005b60029060ff1916179055600b42910155828080610338565b60405162461bcd60e51b8152600481018990526013602482015272115e18d959591cc81b1bd85b88185b5bdd5b9d606a1b6044820152606490fd5b60405162461bcd60e51b815260048101869052602560248201527f46756e64696e6720616d6f756e74206d75737420626520677265617465722074604482015264068616e20360dc1b6064820152608490fd5b6064856040519062461bcd60e51b825280600483015260248201527f4c6f616e206973206e6f7420617070726f76656420666f722066756e64696e676044820152fd5b34610185576020366003190112610185576020610493600435611756565b604051908152f35b34610185576020366003190112610185576004355f52600160205260405f208054600160a01b6001900360018301541691600281016104d990611412565b60038201549160048101546005820154600683016104f690611412565b61050260078501611412565b90600885015496600986015460ff1693600a87015495600b88015497600c0154986040519c8d9c8d6101a092839282526020820152604001528c0161054691611217565b9260608c015260808b015260a08a015288810360c08a015261056791611217565b87810360e089015261057891611217565b94610100870152610120860161058d9161123b565b6101408501526101608401526101808301520390f35b34610185576020366003190112610185576004356105bf611795565b805f526001602052600960405f206105e460018060a01b036001830154161515611671565b01805460ff811690600682101561017157610601600192156116f4565b60ff19161790557f27c83ace41675286abb2789c00edb057ff5dfa6acc032cc11dfbb1a3d16f38f15f80a2005b34610185575f366003190112610185576003805461064b81611550565b915f5b82811061066357604051806102668682611303565b8061066f600192611366565b905490841b1c5f528160205261068760405f206115b3565b610691828761159f565b5261069c818661159f565b500161064e565b34610185576040366003190112610185576106bc6113c4565b6001600160a01b03165f90815260026020526040902080546024359190821015610185576020916106ec916113af565b90546040519160031b1c8152f35b34610185575f366003190112610185575f546040516001600160a01b039091168152602090f35b346101855760203660031901126101855761073a6114ee565b506004355f52600160205261026661075460405f206115b3565b604051918291602083526020830190611248565b3461018557602036600319011261018557600435610784611795565b805f526001602052600960405f206107a960018060a01b036001830154161515611671565b01805460ff8116906006821015610171576107c6600592156116f4565b60ff19161790557f4f1a18f27a9e1cb8f4d35a0594859d81f8ba34f337fbe7a6f89b15be6edef2945f80a2005b34610185575f3660031901126101855761080b611795565b5f80546001600160a01b0319811682556001600160a01b03167f8be0079c531659141344cd1fd0a4f28419497f9722a3daafe3b4186f6b6457e08280a3005b6020366003190112610185576004356108616117c0565b805f52600160205260405f2061088460018060a01b036001830154161515611671565b60098101805460ff811660068110156101715760026108a391146116b3565b341561095d576108b284611756565b34106109185760039060ff1916179055600c429101557f1d7f9b884cc43b9a5c67bd7c6f6fb5ddb8cb3eb3994e934e8448d7bf4a4a25c96020604051348152a260017f9b779b17422d0df92223018b32b4d1fa46e071723d6817e2486d003becc55f0055005b60405162461bcd60e51b815260206004820152601d60248201527f496e73756666696369656e742072657061796d656e7420616d6f756e740000006044820152606490fd5b60405162461bcd60e51b815260206004820152602760248201527f52657061796d656e7420616d6f756e74206d75737420626520677265617465726044820152660207468616e20360cc1b6064820152608490fd5b34610185575f366003190112610185576109ca611795565b5f805481908190819047906001600160a01b03168282156109f9575bf1156109ee57005b6040513d5f823e3d90fd5b506108fc6109e6565b346101855760203660031901126101855760043560035481101561018557610a2b602091611366565b90549060031b1c604051908152f35b34610185575f36600319011261018557600380545f805b828110610b005750610a6290611550565b905f925f5b828110610a7c57604051806102668682611303565b610a8581611366565b905490831b1c5f5260018060205260405f209060ff600983015416906006821015610171578114908115610af5575b50610ac3575b50600101610a67565b60019195610ad3610aee926115b3565b610add828861159f565b52610ae8818761159f565b506114b4565b9490610aba565b600291501487610ab4565b610b0981611366565b905490851b1c5f5260018060205260ff600960405f20015416906006821015610171578114908115610b58575b50610b44575b600101610a51565b90610b506001916114b4565b919050610b3c565b600291501485610b36565b346101855760c03660031901126101855760043567ffffffffffffffff811161018557610b949036906004016111c1565b60843567ffffffffffffffff811161018557610bb49036906004016111c1565b9060a43567ffffffffffffffff811161018557610bd59036906004016111c1565b916024351561113257604435151580611125575b156110e857606435156110a35760405160208101903360601b82526024356034820152426054820152605481526080810181811067ffffffffffffffff821117610e5a5760405251902090815f52600160205260405f209082825560018201336bffffffffffffffffffffffff60a01b825416179055835167ffffffffffffffff8111610e5a57610c7d60028401546113da565b601f811161105f575b50806020601f8211600114610ff6575f91610feb575b508160011b915f199060031b1c19161760028301555b60243560038301556044356004830155606435600583015580519067ffffffffffffffff8211610e5a578190610ceb60068501546113da565b601f8111610f9b575b50602090601f8311600114610f30575f92610f25575b50508160011b915f199060031b1c19161760068201555b835167ffffffffffffffff8111610e5a57610d3f60078301546113da565b601f8111610ee1575b50602094601f8211600114610e79579481929394955f92610e6e575b50508160011b915f199060031b1c19161760078201555b5f60088201556009810160ff198154169055600a42910155335f52600260205260405f2091825492680100000000000000009384811015610e5a57610dca8185936001610de0940181556113af565b819391549060031b91821b915f19901b19161790565b905560035492831015610e5a5781610e03610dca85600160209701600355611366565b9055817f262e882c9cefa0fcc11fa0b95449621ecc14639853e2b40575c66cc84d43bccb610e3c60405193606085526060850190611217565b926024358682015260443560408201528033940390a3604051908152f35b634e487b7160e01b5f52604160045260245ffd5b015190508580610d64565b601f19821695600784015f5260205f20915f5b888110610ec957508360019596979810610eb1575b505050811b016007820155610d7b565b01515f1960f88460031b161c19169055858080610ea1565b91926020600181928685015181550194019201610e8c565b600783015f5260205f20601f830160051c810160208410610f1e575b601f830160051c82018110610f13575050610d48565b5f8155600101610efd565b5080610efd565b015190508680610d0a565b600685015f908152602081209350601f198516905b818110610f835750908460019594939210610f6b575b505050811b016006820155610d21565b01515f1960f88460031b161c19169055868080610f5b565b92936020600181928786015181550195019301610f45565b909150600684015f5260205f20601f840160051c810160208510610fe4575b90849392915b601f830160051c82018110610fd6575050610cf4565b5f8155859450600101610fc0565b5080610fba565b905085015187610c9c565b9150600284015f5260205f205f925b601f1983168410611047576001935082601f1981161061102f575b5050811b016002830155610cb2565b8701515f1960f88460031b161c191690558780611020565b87810151825560209384019360019092019101611005565b600284015f5260205f20601f830160051c81016020841061109c575b601f830160051c82018110611091575050610c86565b5f815560010161107b565b508061107b565b60405162461bcd60e51b815260206004820152601f60248201527f4475726174696f6e206d7573742062652067726561746572207468616e2030006044820152606490fd5b60405162461bcd60e51b8152602060048201526015602482015274496e76616c696420696e746572657374207261746560581b6044820152606490fd5b5060646044351115610be9565b60405162461bcd60e51b815260206004820152602260248201527f4c6f616e20616d6f756e74206d7573742062652067726561746572207468616e604482015261020360f41b6064820152608490fd5b6101a0810190811067ffffffffffffffff821117610e5a57604052565b90601f8019910116810190811067ffffffffffffffff821117610e5a57604052565b81601f820112156101855780359067ffffffffffffffff8211610e5a57604051926111f6601f8401601f19166020018561119f565b8284526020838301011161018557815f926020809301838601378301015290565b805180835260209291819084018484015e5f828201840152601f01601f1916010190565b9060068210156101715752565b906112c16112af61127f6101a08551855260018060a01b036020870151166020860152604086015190806040870152850190611217565b606085015160608501526080850151608085015260a085015160a085015260c085015184820360c0860152611217565b60e084015183820360e0850152611217565b9161010080820151908301526112e0610120808301519084019061123b565b610140808201519083015261016080820151908301526101808091015191015290565b6020808201906020835283518092526040830192602060408460051b8301019501935f915b8483106113385750505050505090565b9091929394958480611356600193603f198682030187528a51611248565b9801930193019194939290611328565b60035481101561139b5760035f527fc2575a0e9e593c00f959f8c92f12db2869c3395a3b0502d05e2516446f71f85b01905f90565b634e487b7160e01b5f52603260045260245ffd5b805482101561139b575f5260205f2001905f90565b600435906001600160a01b038216820361018557565b90600182811c92168015611408575b60208310146113f457565b634e487b7160e01b5f52602260045260245ffd5b91607f16916113e9565b9060405191825f8254611424816113da565b908184526020946001916001811690815f146114925750600114611454575b5050506114529250038361119f565b565b5f90815285812095935091905b81831061147a57505061145293508201015f8080611443565b85548884018501529485019487945091830191611461565b9250505061145294925060ff191682840152151560051b8201015f8080611443565b5f1981146114c25760010190565b634e487b7160e01b5f52601160045260245ffd5b67ffffffffffffffff8111610e5a5760051b60200190565b604051906114fb82611182565b5f61018083828152826020820152606060408201528260608201528260808201528260a0820152606060c0820152606060e0820152826101008201528261012082015282610140820152826101608201520152565b9061155a826114d6565b611567604051918261119f565b8281528092611578601f19916114d6565b01905f5b82811061158857505050565b6020906115936114ee565b8282850101520161157c565b805182101561139b5760209160051b010190565b906040516115c081611182565b8254815260018301546001600160a01b031660208201529182906115e660028201611412565b60408301526003810154606083015260048101546080830152600581015460a083015261161560068201611412565b60c083015261162660078201611412565b60e0830152600881015461010083015260ff60098201541660068110156101715761018091600c91610120850152600a810154610140850152600b8101546101608501520154910152565b1561167857565b60405162461bcd60e51b8152602060048201526013602482015272131bd85b88191bd95cc81b9bdd08195e1a5cdd606a1b6044820152606490fd5b156116ba57565b60405162461bcd60e51b8152602060048201526012602482015271131bd85b881a5cc81b9bdd08199d5b99195960721b6044820152606490fd5b156116fb57565b60405162461bcd60e51b81526020600482015260136024820152724c6f616e206973206e6f742070656e64696e6760681b6044820152606490fd5b818102929181159184041417156114c257565b919082018092116114c257565b5f52600160205261179260405f2063bbf81e0061178b6008830154926005611782600483015486611736565b91015490611736565b0490611749565b90565b5f546001600160a01b031633036117a857565b60405163118cdaa760e01b8152336004820152602490fd5b7f9b779b17422d0df92223018b32b4d1fa46e071723d6817e2486d003becc55f0060028154146117f05760029055565b604051633ee5aeb560e01b8152600490fdfea2646970667358221220951069ffce256f4a2faa7753670c4d25e4ca59f9602b6921b54bd68a9959c62e64736f6c63430008190033","linkReferences":{}},"methodIdentifiers":{"allLoanIds(uint256)":"222ff53d","approveLoan(bytes32)":"bbfe6e95","borrowerLoanIds(address,uint256)":"a56e11bc","calculateTotalRepayment(bytes32)":"c9614538","createLoan(string,uint256,uint256,uint256,string,string)":"09299c15","fundLoan(bytes32)":"d017fa94","getActiveLoans()":"121ed2a7","getAllLoans()":"a5bfd16a","getBorrowerLoans(address)":"eee8b7ff","getLoan(bytes32)":"8932f5f7","loans(bytes32)":"c4a90815","markAsDefaulted(bytes32)":"f9bccab1","owner()":"8da5cb5b","rejectLoan(bytes32)":"73f1869b","renounceOwnership()":"715018a6","repayLoan(bytes32)":"3f84210f","transferOwnership(address)":"f2fde38b","withdrawFunds()":"24600fc3"},"id":28}